{
  "contractName": "Product",
  "abi": [
    {
      "constant": true,
      "inputs": [],
      "name": "lockup",
      "outputs": [
        {
          "name": "",
          "type": "uint256"
        }
      ],
      "payable": false,
      "stateMutability": "view",
      "type": "function"
    },
    {
      "constant": true,
      "inputs": [],
      "name": "name",
      "outputs": [
        {
          "name": "",
          "type": "string"
        }
      ],
      "payable": false,
      "stateMutability": "view",
      "type": "function"
    },
    {
      "constant": true,
      "inputs": [],
      "name": "exceed",
      "outputs": [
        {
          "name": "",
          "type": "uint256"
        }
      ],
      "payable": false,
      "stateMutability": "view",
      "type": "function"
    },
    {
      "constant": true,
      "inputs": [],
      "name": "rate",
      "outputs": [
        {
          "name": "",
          "type": "uint256"
        }
      ],
      "payable": false,
      "stateMutability": "view",
      "type": "function"
    },
    {
      "constant": true,
      "inputs": [],
      "name": "minimum",
      "outputs": [
        {
          "name": "",
          "type": "uint256"
        }
      ],
      "payable": false,
      "stateMutability": "view",
      "type": "function"
    },
    {
      "constant": true,
      "inputs": [],
      "name": "maxcap",
      "outputs": [
        {
          "name": "",
          "type": "uint256"
        }
      ],
      "payable": false,
      "stateMutability": "view",
      "type": "function"
    },
    {
      "constant": false,
      "inputs": [
        {
          "name": "guest",
          "type": "address"
        }
      ],
      "name": "addOwner",
      "outputs": [],
      "payable": false,
      "stateMutability": "nonpayable",
      "type": "function"
    },
    {
      "constant": false,
      "inputs": [
        {
          "name": "newOwner",
          "type": "address"
        }
      ],
      "name": "transferOwnership",
      "outputs": [],
      "payable": false,
      "stateMutability": "nonpayable",
      "type": "function"
    },
    {
      "inputs": [
        {
          "name": "_name",
          "type": "string"
        },
        {
          "name": "_maxcap",
          "type": "uint256"
        },
        {
          "name": "_exceed",
          "type": "uint256"
        },
        {
          "name": "_minimum",
          "type": "uint256"
        },
        {
          "name": "_rate",
          "type": "uint256"
        },
        {
          "name": "_lockup",
          "type": "uint256"
        }
      ],
      "payable": false,
      "stateMutability": "nonpayable",
      "type": "constructor"
    },
    {
      "anonymous": false,
      "inputs": [
        {
          "indexed": true,
          "name": "previousOwner",
          "type": "address"
        },
        {
          "indexed": true,
          "name": "newOwner",
          "type": "address"
        }
      ],
      "name": "OwnershipTransferred",
      "type": "event"
    },
    {
      "anonymous": false,
      "inputs": [
        {
          "indexed": true,
          "name": "host",
          "type": "address"
        },
        {
          "indexed": true,
          "name": "guest",
          "type": "address"
        }
      ],
      "name": "OwnershipExtended",
      "type": "event"
    },
    {
      "constant": false,
      "inputs": [
        {
          "name": "_name",
          "type": "string"
        }
      ],
      "name": "setName",
      "outputs": [],
      "payable": false,
      "stateMutability": "nonpayable",
      "type": "function"
    },
    {
      "constant": false,
      "inputs": [
        {
          "name": "_maxcap",
          "type": "uint256"
        }
      ],
      "name": "setMaxcap",
      "outputs": [],
      "payable": false,
      "stateMutability": "nonpayable",
      "type": "function"
    },
    {
      "constant": false,
      "inputs": [
        {
          "name": "_exceed",
          "type": "uint256"
        }
      ],
      "name": "setExceed",
      "outputs": [],
      "payable": false,
      "stateMutability": "nonpayable",
      "type": "function"
    },
    {
      "constant": false,
      "inputs": [
        {
          "name": "_minimum",
          "type": "uint256"
        }
      ],
      "name": "setMinimum",
      "outputs": [],
      "payable": false,
      "stateMutability": "nonpayable",
      "type": "function"
    },
    {
      "constant": false,
      "inputs": [
        {
          "name": "_rate",
          "type": "uint256"
        }
      ],
      "name": "setRate",
      "outputs": [],
      "payable": false,
      "stateMutability": "nonpayable",
      "type": "function"
    },
    {
      "constant": false,
      "inputs": [
        {
          "name": "_lockup",
          "type": "uint256"
        }
      ],
      "name": "setLockup",
      "outputs": [],
      "payable": false,
      "stateMutability": "nonpayable",
      "type": "function"
    }
  ],
  "bytecode": "0x608060405234801561001057600080fd5b50604051610c51380380610c5183398101806040528101908080518201929190602001805190602001909291908051906020019092919080519060200190929190805190602001909291908051906020019092919050505060016000803373ffffffffffffffffffffffffffffffffffffffff1673ffffffffffffffffffffffffffffffffffffffff16815260200190815260200160002060006101000a81548160ff02191690831515021790555085600190805190602001906100d5929190610104565b5084600281905550836003819055508260048190555081600581905550806006819055505050505050506101a9565b828054600181600116156101000203166002900490600052602060002090601f016020900481019282601f1061014557805160ff1916838001178555610173565b82800160010185558215610173579182015b82811115610172578251825591602001919060010190610157565b5b5090506101809190610184565b5090565b6101a691905b808211156101a257600081600090555060010161018a565b5090565b90565b610a99806101b86000396000f3006080604052600436106100d0576000357c0100000000000000000000000000000000000000000000000000000000900463ffffffff16806306490f47146100d557806306fdde03146101005780630b181567146101905780632c4e722e146101bb5780633209e9e6146101e657806334fcf4371461021357806352d6804d1461024057806355456f581461026b5780636ae6b459146102965780637065cb48146102c35780637f4a1c5214610306578063c47f002714610333578063f2fde38b1461036e578063f9307837146103b1575b600080fd5b3480156100e157600080fd5b506100ea6103de565b6040518082815260200191505060405180910390f35b34801561010c57600080fd5b506101156103e4565b6040518080602001828103825283818151815260200191508051906020019080838360005b8381101561015557808201518184015260208101905061013a565b50505050905090810190601f1680156101825780820380516001836020036101000a031916815260200191505b509250505060405180910390f35b34801561019c57600080fd5b506101a5610482565b6040518082815260200191505060405180910390f35b3480156101c757600080fd5b506101d0610488565b6040518082815260200191505060405180910390f35b3480156101f257600080fd5b506102116004803603810190808035906020019092919050505061048e565b005b34801561021f57600080fd5b5061023e600480360381019080803590602001909291905050506104ef565b005b34801561024c57600080fd5b50610255610550565b6040518082815260200191505060405180910390f35b34801561027757600080fd5b50610280610556565b6040518082815260200191505060405180910390f35b3480156102a257600080fd5b506102c16004803603810190808035906020019092919050505061055c565b005b3480156102cf57600080fd5b50610304600480360381019080803573ffffffffffffffffffffffffffffffffffffffff1690602001909291905050506105bd565b005b34801561031257600080fd5b5061033160048036038101908080359060200190929190505050610704565b005b34801561033f57600080fd5b5061036c600480360381019080803590602001908201803590602001919091929391929390505050610765565b005b34801561037a57600080fd5b506103af600480360381019080803573ffffffffffffffffffffffffffffffffffffffff1690602001909291905050506107d2565b005b3480156103bd57600080fd5b506103dc60048036038101908080359060200190929190505050610967565b005b60065481565b60018054600181600116156101000203166002900480601f01602080910402602001604051908101604052809291908181526020018280546001816001161561010002031660029004801561047a5780601f1061044f5761010080835404028352916020019161047a565b820191906000526020600020905b81548152906001019060200180831161045d57829003601f168201915b505050505081565b60035481565b60055481565b6000803373ffffffffffffffffffffffffffffffffffffffff1673ffffffffffffffffffffffffffffffffffffffff16815260200190815260200160002060009054906101000a900460ff1615156104e557600080fd5b8060048190555050565b6000803373ffffffffffffffffffffffffffffffffffffffff1673ffffffffffffffffffffffffffffffffffffffff16815260200190815260200160002060009054906101000a900460ff16151561054657600080fd5b8060058190555050565b60045481565b60025481565b6000803373ffffffffffffffffffffffffffffffffffffffff1673ffffffffffffffffffffffffffffffffffffffff16815260200190815260200160002060009054906101000a900460ff1615156105b357600080fd5b8060068190555050565b6000803373ffffffffffffffffffffffffffffffffffffffff1673ffffffffffffffffffffffffffffffffffffffff16815260200190815260200160002060009054906101000a900460ff16151561061457600080fd5b600073ffffffffffffffffffffffffffffffffffffffff168173ffffffffffffffffffffffffffffffffffffffff161415151561065057600080fd5b60016000808373ffffffffffffffffffffffffffffffffffffffff1673ffffffffffffffffffffffffffffffffffffffff16815260200190815260200160002060006101000a81548160ff0219169083151502179055508073ffffffffffffffffffffffffffffffffffffffff163373ffffffffffffffffffffffffffffffffffffffff167f1d95aed2b82ae4cbdcccc214bb64bc277a20e8490d69a59d7f426c67fe46c61d60405160405180910390a350565b6000803373ffffffffffffffffffffffffffffffffffffffff1673ffffffffffffffffffffffffffffffffffffffff16815260200190815260200160002060009054906101000a900460ff16151561075b57600080fd5b8060038190555050565b6000803373ffffffffffffffffffffffffffffffffffffffff1673ffffffffffffffffffffffffffffffffffffffff16815260200190815260200160002060009054906101000a900460ff1615156107bc57600080fd5b8181600191906107cd9291906109c8565b505050565b6000803373ffffffffffffffffffffffffffffffffffffffff1673ffffffffffffffffffffffffffffffffffffffff16815260200190815260200160002060009054906101000a900460ff16151561082957600080fd5b600073ffffffffffffffffffffffffffffffffffffffff168173ffffffffffffffffffffffffffffffffffffffff161415151561086557600080fd5b60016000808373ffffffffffffffffffffffffffffffffffffffff1673ffffffffffffffffffffffffffffffffffffffff16815260200190815260200160002060006101000a81548160ff0219169083151502179055506000803373ffffffffffffffffffffffffffffffffffffffff1673ffffffffffffffffffffffffffffffffffffffff16815260200190815260200160002060006101000a81549060ff02191690558073ffffffffffffffffffffffffffffffffffffffff163373ffffffffffffffffffffffffffffffffffffffff167f8be0079c531659141344cd1fd0a4f28419497f9722a3daafe3b4186f6b6457e060405160405180910390a350565b6000803373ffffffffffffffffffffffffffffffffffffffff1673ffffffffffffffffffffffffffffffffffffffff16815260200190815260200160002060009054906101000a900460ff1615156109be57600080fd5b8060028190555050565b828054600181600116156101000203166002900490600052602060002090601f016020900481019282601f10610a0957803560ff1916838001178555610a37565b82800160010185558215610a37579182015b82811115610a36578235825591602001919060010190610a1b565b5b509050610a449190610a48565b5090565b610a6a91905b80821115610a66576000816000905550600101610a4e565b5090565b905600a165627a7a723058201066a5891aaa6d3282386a541182ef4adcb4f7edd53e06e0fe904b7ce2f5de860029",
  "source": "pragma solidity ^0.4.23;\n\nimport \"contracts/utils/ExtendsOwnable.sol\";\n\n/**\n * @title Product\n * @dev Simpler version of Product interface\n */\ncontract Product is ExtendsOwnable {\n    string public name;\n    uint256 public maxcap;\n    uint256 public exceed;\n    uint256 public minimum;\n    uint256 public rate;\n    uint256 public lockup;\n\n    constructor (\n        string _name,\n        uint256 _maxcap,\n        uint256 _exceed,\n        uint256 _minimum,\n        uint256 _rate,\n        uint256 _lockup\n    ) public {\n        name = _name;\n        maxcap = _maxcap;\n        exceed = _exceed;\n        minimum = _minimum;\n        rate = _rate;\n        lockup = _lockup;\n    }\n\n    function setName(string _name) external onlyOwner {\n        name = _name;\n    }\n\n    function setMaxcap(uint256 _maxcap) external onlyOwner {\n        maxcap = _maxcap;\n    }\n\n    function setExceed(uint256 _exceed) external onlyOwner {\n        exceed = _exceed;\n    }\n\n    function setMinimum(uint256 _minimum) external onlyOwner {\n        minimum = _minimum;\n    }\n\n    function setRate(uint256 _rate) external onlyOwner {\n        rate = _rate;\n    }\n\n    function setLockup(uint256 _lockup) external onlyOwner {\n        lockup = _lockup;\n    }\n}\n",
  "sourcePath": "/Users/jhseo/Workspace/Git/Piction/smart-ico/contracts/sale/Product.sol",
  "compiler": {
    "name": "solc",
    "version": "0.4.24+commit.e67f0147.Emscripten.clang"
  },
  "schemaVersion": "2.0.0",
  "updatedAt": "2018-06-28T02:22:42.338Z"
}