{
  "contractName": "Sale",
  "abi": [
    {
      "constant": true,
      "inputs": [],
      "name": "getState",
      "outputs": [
        {
          "name": "",
          "type": "uint8"
        }
      ],
      "payable": false,
      "stateMutability": "view",
      "type": "function"
    },
    {
      "constant": true,
      "inputs": [],
      "name": "tokenDistributor",
      "outputs": [
        {
          "name": "",
          "type": "address"
        }
      ],
      "payable": false,
      "stateMutability": "view",
      "type": "function"
    },
    {
      "constant": true,
      "inputs": [],
      "name": "whiteList",
      "outputs": [
        {
          "name": "",
          "type": "address"
        }
      ],
      "payable": false,
      "stateMutability": "view",
      "type": "function"
    },
    {
      "constant": true,
      "inputs": [],
      "name": "wallet",
      "outputs": [
        {
          "name": "",
          "type": "address"
        }
      ],
      "payable": false,
      "stateMutability": "view",
      "type": "function"
    },
    {
      "constant": false,
      "inputs": [],
      "name": "renounceOwnership",
      "outputs": [],
      "payable": false,
      "stateMutability": "nonpayable",
      "type": "function"
    },
    {
      "constant": true,
      "inputs": [],
      "name": "owner",
      "outputs": [
        {
          "name": "",
          "type": "address"
        }
      ],
      "payable": false,
      "stateMutability": "view",
      "type": "function"
    },
    {
      "constant": true,
      "inputs": [],
      "name": "product",
      "outputs": [
        {
          "name": "",
          "type": "address"
        }
      ],
      "payable": false,
      "stateMutability": "view",
      "type": "function"
    },
    {
      "constant": true,
      "inputs": [
        {
          "name": "_state",
          "type": "uint8"
        }
      ],
      "name": "getKeyByValue",
      "outputs": [
        {
          "name": "",
          "type": "string"
        }
      ],
      "payable": false,
      "stateMutability": "pure",
      "type": "function"
    },
    {
      "constant": false,
      "inputs": [
        {
          "name": "_newOwner",
          "type": "address"
        }
      ],
      "name": "transferOwnership",
      "outputs": [],
      "payable": false,
      "stateMutability": "nonpayable",
      "type": "function"
    },
    {
      "inputs": [
        {
          "name": "_wallet",
          "type": "address"
        },
        {
          "name": "_whiteList",
          "type": "address"
        },
        {
          "name": "_tokenDistributor",
          "type": "address"
        }
      ],
      "payable": false,
      "stateMutability": "nonpayable",
      "type": "constructor"
    },
    {
      "payable": true,
      "stateMutability": "payable",
      "type": "fallback"
    },
    {
      "anonymous": false,
      "inputs": [
        {
          "indexed": true,
          "name": "_buyer",
          "type": "address"
        },
        {
          "indexed": false,
          "name": "_purchased",
          "type": "uint256"
        },
        {
          "indexed": false,
          "name": "_refund",
          "type": "uint256"
        },
        {
          "indexed": false,
          "name": "_tokens",
          "type": "uint256"
        }
      ],
      "name": "Purchase",
      "type": "event"
    },
    {
      "anonymous": false,
      "inputs": [
        {
          "indexed": false,
          "name": "_addr",
          "type": "address"
        },
        {
          "indexed": false,
          "name": "_name",
          "type": "string"
        }
      ],
      "name": "ChangeExternalAddress",
      "type": "event"
    },
    {
      "anonymous": false,
      "inputs": [
        {
          "indexed": false,
          "name": "_state",
          "type": "string"
        }
      ],
      "name": "OnStateChange",
      "type": "event"
    },
    {
      "anonymous": false,
      "inputs": [
        {
          "indexed": true,
          "name": "previousOwner",
          "type": "address"
        }
      ],
      "name": "OwnershipRenounced",
      "type": "event"
    },
    {
      "anonymous": false,
      "inputs": [
        {
          "indexed": true,
          "name": "previousOwner",
          "type": "address"
        },
        {
          "indexed": true,
          "name": "newOwner",
          "type": "address"
        }
      ],
      "name": "OwnershipTransferred",
      "type": "event"
    },
    {
      "constant": false,
      "inputs": [
        {
          "name": "_product",
          "type": "address"
        }
      ],
      "name": "registerProduct",
      "outputs": [],
      "payable": false,
      "stateMutability": "nonpayable",
      "type": "function"
    },
    {
      "constant": false,
      "inputs": [
        {
          "name": "_tokenDistributor",
          "type": "address"
        }
      ],
      "name": "setTokenDistributor",
      "outputs": [],
      "payable": false,
      "stateMutability": "nonpayable",
      "type": "function"
    },
    {
      "constant": false,
      "inputs": [
        {
          "name": "_whitelist",
          "type": "address"
        }
      ],
      "name": "setWhitelist",
      "outputs": [],
      "payable": false,
      "stateMutability": "nonpayable",
      "type": "function"
    },
    {
      "constant": false,
      "inputs": [
        {
          "name": "_wallet",
          "type": "address"
        }
      ],
      "name": "setWallet",
      "outputs": [],
      "payable": false,
      "stateMutability": "nonpayable",
      "type": "function"
    },
    {
      "constant": false,
      "inputs": [],
      "name": "pause",
      "outputs": [],
      "payable": false,
      "stateMutability": "nonpayable",
      "type": "function"
    },
    {
      "constant": false,
      "inputs": [],
      "name": "start",
      "outputs": [],
      "payable": false,
      "stateMutability": "nonpayable",
      "type": "function"
    },
    {
      "constant": false,
      "inputs": [],
      "name": "finish",
      "outputs": [],
      "payable": false,
      "stateMutability": "nonpayable",
      "type": "function"
    },
    {
      "constant": true,
      "inputs": [
        {
          "name": "_product",
          "type": "address"
        }
      ],
      "name": "getProductWeiRaised",
      "outputs": [
        {
          "name": "",
          "type": "uint256"
        }
      ],
      "payable": false,
      "stateMutability": "view",
      "type": "function"
    },
    {
      "constant": false,
      "inputs": [
        {
          "name": "_id",
          "type": "uint256"
        },
        {
          "name": "_product",
          "type": "address"
        },
        {
          "name": "_buyer",
          "type": "address"
        }
      ],
      "name": "refund",
      "outputs": [],
      "payable": true,
      "stateMutability": "payable",
      "type": "function"
    },
    {
      "constant": false,
      "inputs": [
        {
          "name": "_id",
          "type": "uint256"
        },
        {
          "name": "_product",
          "type": "address"
        },
        {
          "name": "_from",
          "type": "address"
        },
        {
          "name": "_to",
          "type": "address"
        }
      ],
      "name": "buyerAddressTransfer",
      "outputs": [],
      "payable": false,
      "stateMutability": "nonpayable",
      "type": "function"
    }
  ],
  "bytecode": "0x60806040523480156200001157600080fd5b50604051606080620038ac833981018060405281019080805190602001909291908051906020019092919080519060200190929190505050336000806101000a81548173ffffffffffffffffffffffffffffffffffffffff021916908373ffffffffffffffffffffffffffffffffffffffff16021790555060008060146101000a81548160ff02191690836004811115620000a857fe5b0217905550600073ffffffffffffffffffffffffffffffffffffffff168373ffffffffffffffffffffffffffffffffffffffff1614151515620000ea57600080fd5b600073ffffffffffffffffffffffffffffffffffffffff168273ffffffffffffffffffffffffffffffffffffffff16141515156200012757600080fd5b600073ffffffffffffffffffffffffffffffffffffffff168173ffffffffffffffffffffffffffffffffffffffff16141515156200016457600080fd5b82600160006101000a81548173ffffffffffffffffffffffffffffffffffffffff021916908373ffffffffffffffffffffffffffffffffffffffff16021790555081600260006101000a81548173ffffffffffffffffffffffffffffffffffffffff021916908373ffffffffffffffffffffffffffffffffffffffff16021790555080600460006101000a81548173ffffffffffffffffffffffffffffffffffffffff021916908373ffffffffffffffffffffffffffffffffffffffff160217905550505050613672806200023a6000396000f300608060405260043610610107576000357c0100000000000000000000000000000000000000000000000000000000900463ffffffff1680631865c57d14610da957806318a6bc3214610de25780632d46f5df14610e395780633544a86414610e7c57806338280e6b14610ed3578063521eb27314610f16578063715018a614610f6d578063764423a414610f845780638456cb5914611011578063854cff2f146110285780638da5cb5b1461106b57806396e83a40146110c2578063be9a655514611122578063bf9ce95214611139578063d56b288914611190578063d7fa42f7146111a7578063deaa59df14611250578063f2fde38b14611293578063ffaf862f146112d6575b6000806000806000339450349350600360009054906101000a900473ffffffffffffffffffffffffffffffffffffffff1692506002600481111561014757fe5b61014f61132d565b600481111561015a57fe5b14151561016657600080fd5b600260009054906101000a900473ffffffffffffffffffffffffffffffffffffffff1673ffffffffffffffffffffffffffffffffffffffff16639b19251a866040518263ffffffff167c0100000000000000000000000000000000000000000000000000000000028152600401808273ffffffffffffffffffffffffffffffffffffffff1673ffffffffffffffffffffffffffffffffffffffff168152602001915050602060405180830381600087803b15801561022357600080fd5b505af1158015610237573d6000803e3d6000fd5b505050506040513d602081101561024d57600080fd5b8101908080519060200190929190505050151561026957600080fd5b600073ffffffffffffffffffffffffffffffffffffffff168573ffffffffffffffffffffffffffffffffffffffff16141515156102a557600080fd5b600360009054906101000a900473ffffffffffffffffffffffffffffffffffffffff1673ffffffffffffffffffffffffffffffffffffffff166355456f586040518163ffffffff167c0100000000000000000000000000000000000000000000000000000000028152600401602060405180830381600087803b15801561032b57600080fd5b505af115801561033f573d6000803e3d6000fd5b505050506040513d602081101561035557600080fd5b8101908080519060200190929190505050600660008573ffffffffffffffffffffffffffffffffffffffff1673ffffffffffffffffffffffffffffffffffffffff168152602001908152602001600020541015156103b257600080fd5b600360009054906101000a900473ffffffffffffffffffffffffffffffffffffffff1673ffffffffffffffffffffffffffffffffffffffff16630b1815676040518163ffffffff167c0100000000000000000000000000000000000000000000000000000000028152600401602060405180830381600087803b15801561043857600080fd5b505af115801561044c573d6000803e3d6000fd5b505050506040513d602081101561046257600080fd5b8101908080519060200190929190505050600760008573ffffffffffffffffffffffffffffffffffffffff1673ffffffffffffffffffffffffffffffffffffffff16815260200190815260200160002060008773ffffffffffffffffffffffffffffffffffffffff1673ffffffffffffffffffffffffffffffffffffffff168152602001908152602001600020541015156104fc57600080fd5b600360009054906101000a900473ffffffffffffffffffffffffffffffffffffffff1673ffffffffffffffffffffffffffffffffffffffff166352d6804d6040518163ffffffff167c0100000000000000000000000000000000000000000000000000000000028152600401602060405180830381600087803b15801561058257600080fd5b505af1158015610596573d6000803e3d6000fd5b505050506040513d60208110156105ac57600080fd5b810190808051906020019092919050505061064c85600760008773ffffffffffffffffffffffffffffffffffffffff1673ffffffffffffffffffffffffffffffffffffffff16815260200190815260200160002060008973ffffffffffffffffffffffffffffffffffffffff1673ffffffffffffffffffffffffffffffffffffffff1681526020019081526020016000205461134390919063ffffffff16565b1015151561065957600080fd5b6106e0600760008573ffffffffffffffffffffffffffffffffffffffff1673ffffffffffffffffffffffffffffffffffffffff16815260200190815260200160002060008773ffffffffffffffffffffffffffffffffffffffff1673ffffffffffffffffffffffffffffffffffffffff16815260200190815260200160002054858561135f565b80925081935050506000821115610b0e57600160009054906101000a900473ffffffffffffffffffffffffffffffffffffffff1673ffffffffffffffffffffffffffffffffffffffff166108fc839081150290604051600060405180830381858888f19350505050158015610759573d6000803e3d6000fd5b50600460009054906101000a900473ffffffffffffffffffffffffffffffffffffffff1673ffffffffffffffffffffffffffffffffffffffff1663adf4fa09868561086d600360009054906101000a900473ffffffffffffffffffffffffffffffffffffffff1673ffffffffffffffffffffffffffffffffffffffff16632c4e722e6040518163ffffffff167c0100000000000000000000000000000000000000000000000000000000028152600401602060405180830381600087803b15801561082357600080fd5b505af1158015610837573d6000803e3d6000fd5b505050506040513d602081101561084d57600080fd5b81019080805190602001909291905050508761159a90919063ffffffff16565b866040518563ffffffff167c0100000000000000000000000000000000000000000000000000000000028152600401808573ffffffffffffffffffffffffffffffffffffffff1673ffffffffffffffffffffffffffffffffffffffff1681526020018473ffffffffffffffffffffffffffffffffffffffff1673ffffffffffffffffffffffffffffffffffffffff168152602001838152602001828152602001945050505050602060405180830381600087803b15801561092d57600080fd5b505af1158015610941573d6000803e3d6000fd5b505050506040513d602081101561095757600080fd5b8101908080519060200190929190505050506109bb82600660008673ffffffffffffffffffffffffffffffffffffffff1673ffffffffffffffffffffffffffffffffffffffff1681526020019081526020016000205461134390919063ffffffff16565b600660008573ffffffffffffffffffffffffffffffffffffffff1673ffffffffffffffffffffffffffffffffffffffff16815260200190815260200160002081905550610a8d82600760008673ffffffffffffffffffffffffffffffffffffffff1673ffffffffffffffffffffffffffffffffffffffff16815260200190815260200160002060008873ffffffffffffffffffffffffffffffffffffffff1673ffffffffffffffffffffffffffffffffffffffff1681526020019081526020016000205461134390919063ffffffff16565b600760008573ffffffffffffffffffffffffffffffffffffffff1673ffffffffffffffffffffffffffffffffffffffff16815260200190815260200160002060008773ffffffffffffffffffffffffffffffffffffffff1673ffffffffffffffffffffffffffffffffffffffff168152602001908152602001600020819055505b6000811115610b5f578473ffffffffffffffffffffffffffffffffffffffff166108fc829081150290604051600060405180830381858888f19350505050158015610b5d573d6000803e3d6000fd5b505b600360009054906101000a900473ffffffffffffffffffffffffffffffffffffffff1673ffffffffffffffffffffffffffffffffffffffff166355456f586040518163ffffffff167c0100000000000000000000000000000000000000000000000000000000028152600401602060405180830381600087803b158015610be557600080fd5b505af1158015610bf9573d6000803e3d6000fd5b505050506040513d6020811015610c0f57600080fd5b8101908080519060200190929190505050600660008573ffffffffffffffffffffffffffffffffffffffff1673ffffffffffffffffffffffffffffffffffffffff16815260200190815260200160002054101515610c7257610c7160046115d2565b5b8473ffffffffffffffffffffffffffffffffffffffff167f5bc97d73357ac0d035d4b9268a69240988a5776b8a4fcced3dbc223960123f408383610d7f600360009054906101000a900473ffffffffffffffffffffffffffffffffffffffff1673ffffffffffffffffffffffffffffffffffffffff16632c4e722e6040518163ffffffff167c0100000000000000000000000000000000000000000000000000000000028152600401602060405180830381600087803b158015610d3557600080fd5b505af1158015610d49573d6000803e3d6000fd5b505050506040513d6020811015610d5f57600080fd5b81019080805190602001909291905050508761159a90919063ffffffff16565b60405180848152602001838152602001828152602001935050505060405180910390a25050505050005b348015610db557600080fd5b50610dbe61132d565b60405180826004811115610dce57fe5b60ff16815260200191505060405180910390f35b348015610dee57600080fd5b50610df76116ab565b604051808273ffffffffffffffffffffffffffffffffffffffff1673ffffffffffffffffffffffffffffffffffffffff16815260200191505060405180910390f35b348015610e4557600080fd5b50610e7a600480360381019080803573ffffffffffffffffffffffffffffffffffffffff1690602001909291905050506116d1565b005b348015610e8857600080fd5b50610e91611b4b565b604051808273ffffffffffffffffffffffffffffffffffffffff1673ffffffffffffffffffffffffffffffffffffffff16815260200191505060405180910390f35b348015610edf57600080fd5b50610f14600480360381019080803573ffffffffffffffffffffffffffffffffffffffff169060200190929190505050611b71565b005b348015610f2257600080fd5b50610f2b611da0565b604051808273ffffffffffffffffffffffffffffffffffffffff1673ffffffffffffffffffffffffffffffffffffffff16815260200191505060405180910390f35b348015610f7957600080fd5b50610f82611dc6565b005b348015610f9057600080fd5b5061100f60048036038101908080359060200190929190803573ffffffffffffffffffffffffffffffffffffffff169060200190929190803573ffffffffffffffffffffffffffffffffffffffff169060200190929190803573ffffffffffffffffffffffffffffffffffffffff169060200190929190505050611ec8565b005b34801561101d57600080fd5b5061102661273f565b005b34801561103457600080fd5b50611069600480360381019080803573ffffffffffffffffffffffffffffffffffffffff1690602001909291905050506127d2565b005b34801561107757600080fd5b50611080612986565b604051808273ffffffffffffffffffffffffffffffffffffffff1673ffffffffffffffffffffffffffffffffffffffff16815260200191505060405180910390f35b61112060048036038101908080359060200190929190803573ffffffffffffffffffffffffffffffffffffffff169060200190929190803573ffffffffffffffffffffffffffffffffffffffff1690602001909291905050506129ab565b005b34801561112e57600080fd5b50611137612f0f565b005b34801561114557600080fd5b5061114e612fca565b604051808273ffffffffffffffffffffffffffffffffffffffff1673ffffffffffffffffffffffffffffffffffffffff16815260200191505060405180910390f35b34801561119c57600080fd5b506111a5612ff0565b005b3480156111b357600080fd5b506111d5600480360381019080803560ff169060200190929190505050613057565b6040518080602001828103825283818151815260200191508051906020019080838360005b838110156112155780820151818401526020810190506111fa565b50505050905090810190601f1680156112425780820380516001836020036101000a031916815260200191505b509250505060405180910390f35b34801561125c57600080fd5b50611291600480360381019080803573ffffffffffffffffffffffffffffffffffffffff16906020019092919050505061323d565b005b34801561129f57600080fd5b506112d4600480360381019080803573ffffffffffffffffffffffffffffffffffffffff1690602001909291905050506133f1565b005b3480156112e257600080fd5b50611317600480360381019080803573ffffffffffffffffffffffffffffffffffffffff169060200190929190505050613458565b6040518082815260200191505060405180910390f35b60008060149054906101000a900460ff16905090565b6000818301905082811015151561135657fe5b80905092915050565b6000806000806000611479600660008873ffffffffffffffffffffffffffffffffffffffff1673ffffffffffffffffffffffffffffffffffffffff16815260200190815260200160002054600360009054906101000a900473ffffffffffffffffffffffffffffffffffffffff1673ffffffffffffffffffffffffffffffffffffffff166355456f586040518163ffffffff167c0100000000000000000000000000000000000000000000000000000000028152600401602060405180830381600087803b15801561143057600080fd5b505af1158015611444573d6000803e3d6000fd5b505050506040513d602081101561145a57600080fd5b810190808051906020019092919050505061351a90919063ffffffff16565b925061154e88600360009054906101000a900473ffffffffffffffffffffffffffffffffffffffff1673ffffffffffffffffffffffffffffffffffffffff16630b1815676040518163ffffffff167c0100000000000000000000000000000000000000000000000000000000028152600401602060405180830381600087803b15801561150557600080fd5b505af1158015611519573d6000803e3d6000fd5b505050506040513d602081101561152f57600080fd5b810190808051906020019092919050505061351a90919063ffffffff16565b915061157587611567848661353390919063ffffffff16565b61353390919063ffffffff16565b90508061158b828961351a90919063ffffffff16565b94509450505050935093915050565b6000808314156115ad57600090506115cc565b81830290508183828115156115be57fe5b041415156115c857fe5b8090505b92915050565b80600060146101000a81548160ff021916908360048111156115f057fe5b02179055507ff5cbeee90160f15bd13c58360065d2b4d10d973a0b69e9173db84b09b07786a761162e600060149054906101000a900460ff16613057565b6040518080602001828103825283818151815260200191508051906020019080838360005b8381101561166e578082015181840152602081019050611653565b50505050905090810190601f16801561169b5780820380516001836020036101000a031916815260200191505b509250505060405180910390a150565b600460009054906101000a900473ffffffffffffffffffffffffffffffffffffffff1681565b6000809054906101000a900473ffffffffffffffffffffffffffffffffffffffff1673ffffffffffffffffffffffffffffffffffffffff163373ffffffffffffffffffffffffffffffffffffffff1614151561172c57600080fd5b6000600481111561173957fe5b61174161132d565b600481111561174c57fe5b148061177557506001600481111561176057fe5b61176861132d565b600481111561177357fe5b145b8061179c575060048081111561178757fe5b61178f61132d565b600481111561179a57fe5b145b15156117a757600080fd5b80600073ffffffffffffffffffffffffffffffffffffffff168173ffffffffffffffffffffffffffffffffffffffff16141515156117e457600080fd5b3073ffffffffffffffffffffffffffffffffffffffff168173ffffffffffffffffffffffffffffffffffffffff161415151561181f57600080fd5b81600560008273ffffffffffffffffffffffffffffffffffffffff1673ffffffffffffffffffffffffffffffffffffffff16815260200190815260200160002060009054906101000a900460ff1615151561187957600080fd5b82600360006101000a81548173ffffffffffffffffffffffffffffffffffffffff021916908373ffffffffffffffffffffffffffffffffffffffff160217905550600360009054906101000a900473ffffffffffffffffffffffffffffffffffffffff1673ffffffffffffffffffffffffffffffffffffffff166352d6804d6040518163ffffffff167c0100000000000000000000000000000000000000000000000000000000028152600401602060405180830381600087803b15801561194057600080fd5b505af1158015611954573d6000803e3d6000fd5b505050506040513d602081101561196a57600080fd5b8101908080519060200190929190505050600360009054906101000a900473ffffffffffffffffffffffffffffffffffffffff1673ffffffffffffffffffffffffffffffffffffffff166355456f586040518163ffffffff167c0100000000000000000000000000000000000000000000000000000000028152600401602060405180830381600087803b158015611a0157600080fd5b505af1158015611a15573d6000803e3d6000fd5b505050506040513d6020811015611a2b57600080fd5b8101908080519060200190929190505050111515611a4857600080fd5b6001600560008573ffffffffffffffffffffffffffffffffffffffff1673ffffffffffffffffffffffffffffffffffffffff16815260200190815260200160002060006101000a81548160ff021916908315150217905550611aaa60016115d2565b7fda2dd3a8d034b67993d9738154af45c322876564b4cbf43b31fb073a469e730783604051808273ffffffffffffffffffffffffffffffffffffffff1673ffffffffffffffffffffffffffffffffffffffff16815260200180602001828103825260078152602001807f50726f64756374000000000000000000000000000000000000000000000000008152506020019250505060405180910390a1505050565b600260009054906101000a900473ffffffffffffffffffffffffffffffffffffffff1681565b6000809054906101000a900473ffffffffffffffffffffffffffffffffffffffff1673ffffffffffffffffffffffffffffffffffffffff163373ffffffffffffffffffffffffffffffffffffffff16141515611bcc57600080fd5b60006004811115611bd957fe5b611be161132d565b6004811115611bec57fe5b1480611c15575060016004811115611c0057fe5b611c0861132d565b6004811115611c1357fe5b145b80611c3c5750600480811115611c2757fe5b611c2f61132d565b6004811115611c3a57fe5b145b1515611c4757600080fd5b80600073ffffffffffffffffffffffffffffffffffffffff168173ffffffffffffffffffffffffffffffffffffffff1614151515611c8457600080fd5b3073ffffffffffffffffffffffffffffffffffffffff168173ffffffffffffffffffffffffffffffffffffffff1614151515611cbf57600080fd5b81600460006101000a81548173ffffffffffffffffffffffffffffffffffffffff021916908373ffffffffffffffffffffffffffffffffffffffff1602179055507fda2dd3a8d034b67993d9738154af45c322876564b4cbf43b31fb073a469e730782604051808273ffffffffffffffffffffffffffffffffffffffff1673ffffffffffffffffffffffffffffffffffffffff16815260200180602001828103825260108152602001807f546f6b656e4469737472696275746f72000000000000000000000000000000008152506020019250505060405180910390a15050565b600160009054906101000a900473ffffffffffffffffffffffffffffffffffffffff1681565b6000809054906101000a900473ffffffffffffffffffffffffffffffffffffffff1673ffffffffffffffffffffffffffffffffffffffff163373ffffffffffffffffffffffffffffffffffffffff16141515611e2157600080fd5b6000809054906101000a900473ffffffffffffffffffffffffffffffffffffffff1673ffffffffffffffffffffffffffffffffffffffff167ff8df31144d9c2f0f6b59d69b8b98abd5459d07f2742c4df920b25aae33c6482060405160405180910390a260008060006101000a81548173ffffffffffffffffffffffffffffffffffffffff021916908373ffffffffffffffffffffffffffffffffffffffff160217905550565b6000806000809054906101000a900473ffffffffffffffffffffffffffffffffffffffff1673ffffffffffffffffffffffffffffffffffffffff163373ffffffffffffffffffffffffffffffffffffffff16141515611f2657600080fd5b84600073ffffffffffffffffffffffffffffffffffffffff168173ffffffffffffffffffffffffffffffffffffffff1614151515611f6357600080fd5b3073ffffffffffffffffffffffffffffffffffffffff168173ffffffffffffffffffffffffffffffffffffffff1614151515611f9e57600080fd5b84600073ffffffffffffffffffffffffffffffffffffffff168173ffffffffffffffffffffffffffffffffffffffff1614151515611fdb57600080fd5b3073ffffffffffffffffffffffffffffffffffffffff168173ffffffffffffffffffffffffffffffffffffffff161415151561201657600080fd5b84600073ffffffffffffffffffffffffffffffffffffffff168173ffffffffffffffffffffffffffffffffffffffff161415151561205357600080fd5b3073ffffffffffffffffffffffffffffffffffffffff168173ffffffffffffffffffffffffffffffffffffffff161415151561208e57600080fd5b60008911151561209d57600080fd5b600260009054906101000a900473ffffffffffffffffffffffffffffffffffffffff1673ffffffffffffffffffffffffffffffffffffffff16639b19251a886040518263ffffffff167c0100000000000000000000000000000000000000000000000000000000028152600401808273ffffffffffffffffffffffffffffffffffffffff1673ffffffffffffffffffffffffffffffffffffffff168152602001915050602060405180830381600087803b15801561215a57600080fd5b505af115801561216e573d6000803e3d6000fd5b505050506040513d602081101561218457600080fd5b810190808051906020019092919050505015156121a057600080fd5b600260009054906101000a900473ffffffffffffffffffffffffffffffffffffffff1673ffffffffffffffffffffffffffffffffffffffff16639b19251a876040518263ffffffff167c0100000000000000000000000000000000000000000000000000000000028152600401808273ffffffffffffffffffffffffffffffffffffffff1673ffffffffffffffffffffffffffffffffffffffff168152602001915050602060405180830381600087803b15801561225d57600080fd5b505af1158015612271573d6000803e3d6000fd5b505050506040513d602081101561228757600080fd5b810190808051906020019092919050505015156122a357600080fd5b6000600760008a73ffffffffffffffffffffffffffffffffffffffff1673ffffffffffffffffffffffffffffffffffffffff16815260200190815260200160002060008973ffffffffffffffffffffffffffffffffffffffff1673ffffffffffffffffffffffffffffffffffffffff1681526020019081526020016000205411151561232e57600080fd5b6000600760008a73ffffffffffffffffffffffffffffffffffffffff1673ffffffffffffffffffffffffffffffffffffffff16815260200190815260200160002060008873ffffffffffffffffffffffffffffffffffffffff1673ffffffffffffffffffffffffffffffffffffffff168152602001908152602001600020541415156123b957600080fd5b600460009054906101000a900473ffffffffffffffffffffffffffffffffffffffff1673ffffffffffffffffffffffffffffffffffffffff1663270e4cf08a89896040518463ffffffff167c0100000000000000000000000000000000000000000000000000000000028152600401808481526020018373ffffffffffffffffffffffffffffffffffffffff1673ffffffffffffffffffffffffffffffffffffffff1681526020018273ffffffffffffffffffffffffffffffffffffffff1673ffffffffffffffffffffffffffffffffffffffff16815260200193505050506040805180830381600087803b1580156124b157600080fd5b505af11580156124c5573d6000803e3d6000fd5b505050506040513d60408110156124db57600080fd5b810190808051906020019092919080519060200190929190505050809550819650505084801561250b5750600084115b151561251657600080fd5b6125a584600760008b73ffffffffffffffffffffffffffffffffffffffff1673ffffffffffffffffffffffffffffffffffffffff16815260200190815260200160002060008a73ffffffffffffffffffffffffffffffffffffffff1673ffffffffffffffffffffffffffffffffffffffff1681526020019081526020016000205461351a90919063ffffffff16565b600760008a73ffffffffffffffffffffffffffffffffffffffff1673ffffffffffffffffffffffffffffffffffffffff16815260200190815260200160002060008973ffffffffffffffffffffffffffffffffffffffff1673ffffffffffffffffffffffffffffffffffffffff168152602001908152602001600020819055506126b484600760008b73ffffffffffffffffffffffffffffffffffffffff1673ffffffffffffffffffffffffffffffffffffffff16815260200190815260200160002060008973ffffffffffffffffffffffffffffffffffffffff1673ffffffffffffffffffffffffffffffffffffffff1681526020019081526020016000205461134390919063ffffffff16565b600760008a73ffffffffffffffffffffffffffffffffffffffff1673ffffffffffffffffffffffffffffffffffffffff16815260200190815260200160002060008873ffffffffffffffffffffffffffffffffffffffff1673ffffffffffffffffffffffffffffffffffffffff16815260200190815260200160002081905550505050505050505050565b6000809054906101000a900473ffffffffffffffffffffffffffffffffffffffff1673ffffffffffffffffffffffffffffffffffffffff163373ffffffffffffffffffffffffffffffffffffffff1614151561279a57600080fd5b600260048111156127a757fe5b6127af61132d565b60048111156127ba57fe5b1415156127c657600080fd5b6127d060036115d2565b565b6000809054906101000a900473ffffffffffffffffffffffffffffffffffffffff1673ffffffffffffffffffffffffffffffffffffffff163373ffffffffffffffffffffffffffffffffffffffff1614151561282d57600080fd5b80600073ffffffffffffffffffffffffffffffffffffffff168173ffffffffffffffffffffffffffffffffffffffff161415151561286a57600080fd5b3073ffffffffffffffffffffffffffffffffffffffff168173ffffffffffffffffffffffffffffffffffffffff16141515156128a557600080fd5b81600260006101000a81548173ffffffffffffffffffffffffffffffffffffffff021916908373ffffffffffffffffffffffffffffffffffffffff1602179055507fda2dd3a8d034b67993d9738154af45c322876564b4cbf43b31fb073a469e730782604051808273ffffffffffffffffffffffffffffffffffffffff1673ffffffffffffffffffffffffffffffffffffffff16815260200180602001828103825260098152602001807f57686974656c69737400000000000000000000000000000000000000000000008152506020019250505060405180910390a15050565b6000809054906101000a900473ffffffffffffffffffffffffffffffffffffffff1681565b6000806000809054906101000a900473ffffffffffffffffffffffffffffffffffffffff1673ffffffffffffffffffffffffffffffffffffffff163373ffffffffffffffffffffffffffffffffffffffff16141515612a0957600080fd5b83600073ffffffffffffffffffffffffffffffffffffffff168173ffffffffffffffffffffffffffffffffffffffff1614151515612a4657600080fd5b3073ffffffffffffffffffffffffffffffffffffffff168173ffffffffffffffffffffffffffffffffffffffff1614151515612a8157600080fd5b83600073ffffffffffffffffffffffffffffffffffffffff168173ffffffffffffffffffffffffffffffffffffffff1614151515612abe57600080fd5b3073ffffffffffffffffffffffffffffffffffffffff168173ffffffffffffffffffffffffffffffffffffffff1614151515612af957600080fd5b600087111515612b0857600080fd5b600460009054906101000a900473ffffffffffffffffffffffffffffffffffffffff1673ffffffffffffffffffffffffffffffffffffffff166396e83a408888886040518463ffffffff167c0100000000000000000000000000000000000000000000000000000000028152600401808481526020018373ffffffffffffffffffffffffffffffffffffffff1673ffffffffffffffffffffffffffffffffffffffff1681526020018273ffffffffffffffffffffffffffffffffffffffff1673ffffffffffffffffffffffffffffffffffffffff16815260200193505050506040805180830381600087803b158015612c0057600080fd5b505af1158015612c14573d6000803e3d6000fd5b505050506040513d6040811015612c2a57600080fd5b81019080805190602001909291908051906020019092919050505080945081955050508234141515612c5b57600080fd5b838015612c685750600083115b1515612c7357600080fd5b8473ffffffffffffffffffffffffffffffffffffffff166108fc849081150290604051600060405180830381858888f19350505050158015612cb9573d6000803e3d6000fd5b508573ffffffffffffffffffffffffffffffffffffffff16600360009054906101000a900473ffffffffffffffffffffffffffffffffffffffff1673ffffffffffffffffffffffffffffffffffffffff16148015612d5c575060026004811115612d1f57fe5b612d2761132d565b6004811115612d3257fe5b1480612d5b575060036004811115612d4657fe5b612d4e61132d565b6004811115612d5957fe5b145b5b15612f0657612db383600660008973ffffffffffffffffffffffffffffffffffffffff1673ffffffffffffffffffffffffffffffffffffffff1681526020019081526020016000205461351a90919063ffffffff16565b600660008873ffffffffffffffffffffffffffffffffffffffff1673ffffffffffffffffffffffffffffffffffffffff16815260200190815260200160002081905550612e8583600760008973ffffffffffffffffffffffffffffffffffffffff1673ffffffffffffffffffffffffffffffffffffffff16815260200190815260200160002060008873ffffffffffffffffffffffffffffffffffffffff1673ffffffffffffffffffffffffffffffffffffffff1681526020019081526020016000205461351a90919063ffffffff16565b600760008873ffffffffffffffffffffffffffffffffffffffff1673ffffffffffffffffffffffffffffffffffffffff16815260200190815260200160002060008773ffffffffffffffffffffffffffffffffffffffff1673ffffffffffffffffffffffffffffffffffffffff168152602001908152602001600020819055505b50505050505050565b6000809054906101000a900473ffffffffffffffffffffffffffffffffffffffff1673ffffffffffffffffffffffffffffffffffffffff163373ffffffffffffffffffffffffffffffffffffffff16141515612f6a57600080fd5b60016004811115612f7757fe5b612f7f61132d565b6004811115612f8a57fe5b1480612fb3575060036004811115612f9e57fe5b612fa661132d565b6004811115612fb157fe5b145b1515612fbe57600080fd5b612fc860026115d2565b565b600360009054906101000a900473ffffffffffffffffffffffffffffffffffffffff1681565b6000809054906101000a900473ffffffffffffffffffffffffffffffffffffffff1673ffffffffffffffffffffffffffffffffffffffff163373ffffffffffffffffffffffffffffffffffffffff1614151561304b57600080fd5b61305560046115d2565b565b606081600481111561306557fe5b6000600481111561307257fe5b14156130b5576040805190810160405280600781526020017f556e6b6e6f776e000000000000000000000000000000000000000000000000008152509050613238565b8160048111156130c157fe5b600160048111156130ce57fe5b1415613111576040805190810160405280600981526020017f507265706172696e6700000000000000000000000000000000000000000000008152509050613238565b81600481111561311d57fe5b6002600481111561312a57fe5b141561316d576040805190810160405280600881526020017f5374617274696e670000000000000000000000000000000000000000000000008152509050613238565b81600481111561317957fe5b6003600481111561318657fe5b14156131c9576040805190810160405280600781526020017f50617573696e67000000000000000000000000000000000000000000000000008152509050613238565b8160048111156131d557fe5b6004808111156131e157fe5b1415613224576040805190810160405280600881526020017f46696e69736865640000000000000000000000000000000000000000000000008152509050613238565b602060405190810160405280600081525090505b919050565b6000809054906101000a900473ffffffffffffffffffffffffffffffffffffffff1673ffffffffffffffffffffffffffffffffffffffff163373ffffffffffffffffffffffffffffffffffffffff1614151561329857600080fd5b80600073ffffffffffffffffffffffffffffffffffffffff168173ffffffffffffffffffffffffffffffffffffffff16141515156132d557600080fd5b3073ffffffffffffffffffffffffffffffffffffffff168173ffffffffffffffffffffffffffffffffffffffff161415151561331057600080fd5b81600160006101000a81548173ffffffffffffffffffffffffffffffffffffffff021916908373ffffffffffffffffffffffffffffffffffffffff1602179055507fda2dd3a8d034b67993d9738154af45c322876564b4cbf43b31fb073a469e730782604051808273ffffffffffffffffffffffffffffffffffffffff1673ffffffffffffffffffffffffffffffffffffffff16815260200180602001828103825260068152602001807f57616c6c657400000000000000000000000000000000000000000000000000008152506020019250505060405180910390a15050565b6000809054906101000a900473ffffffffffffffffffffffffffffffffffffffff1673ffffffffffffffffffffffffffffffffffffffff163373ffffffffffffffffffffffffffffffffffffffff1614151561344c57600080fd5b6134558161354c565b50565b600081600073ffffffffffffffffffffffffffffffffffffffff168173ffffffffffffffffffffffffffffffffffffffff161415151561349757600080fd5b3073ffffffffffffffffffffffffffffffffffffffff168173ffffffffffffffffffffffffffffffffffffffff16141515156134d257600080fd5b600660008473ffffffffffffffffffffffffffffffffffffffff1673ffffffffffffffffffffffffffffffffffffffff16815260200190815260200160002054915050919050565b600082821115151561352857fe5b818303905092915050565b60008183106135425781613544565b825b905092915050565b600073ffffffffffffffffffffffffffffffffffffffff168173ffffffffffffffffffffffffffffffffffffffff161415151561358857600080fd5b8073ffffffffffffffffffffffffffffffffffffffff166000809054906101000a900473ffffffffffffffffffffffffffffffffffffffff1673ffffffffffffffffffffffffffffffffffffffff167f8be0079c531659141344cd1fd0a4f28419497f9722a3daafe3b4186f6b6457e060405160405180910390a3806000806101000a81548173ffffffffffffffffffffffffffffffffffffffff021916908373ffffffffffffffffffffffffffffffffffffffff160217905550505600a165627a7a72305820fbe0d9b05161531005b993664dc99c3733f4b0c6f4bad767e32b967010249cb70029",
  "source": "pragma solidity ^0.4.23;\n\nimport \"openzeppelin-solidity/contracts/math/Math.sol\";\nimport \"openzeppelin-solidity/contracts/math/SafeMath.sol\";\nimport \"openzeppelin-solidity/contracts/access/Whitelist.sol\";\n\nimport \"./TokenDistributor.sol\";\nimport \"../utils/Stateable.sol\";\n\ncontract Sale is Stateable {\n    using SafeMath for uint256;\n    using Math for uint256;\n\n    address public wallet;\n    Whitelist public whiteList;\n    Product public product;\n    TokenDistributor public tokenDistributor;\n\n    mapping (address => bool) isRegistered;\n    mapping (address => uint256) weiRaised;\n    mapping (address => mapping (address => uint256)) buyers;\n\n    modifier validAddress(address _account) {\n        require(_account != address(0));\n        require(_account != address(this));\n        _;\n    }\n\n    modifier validProductAddress(address _product) {\n        require(!isRegistered[_product]);\n        _;\n    }\n\n    modifier checkStatus() {\n        require(getState() == State.Unknown || getState() == State.Preparing || getState() == State.Finished);\n        _;\n    }\n\n    constructor (\n        address _wallet,\n        address _whiteList,\n        address _tokenDistributor\n    ) public {\n        require(_wallet != address(0));\n        require(_whiteList != address(0));\n        require(_tokenDistributor != address(0));\n\n        wallet = _wallet;\n        whiteList = Whitelist(_whiteList);\n        tokenDistributor = TokenDistributor(_tokenDistributor);\n    }\n\n    function registerProduct(address _product)\n        external\n        onlyOwner\n        checkStatus\n        validAddress(_product)\n        validProductAddress(_product)\n    {\n        product = Product(_product);\n\n        require(product.maxcap() > product.minimum());\n\n        isRegistered[_product] = true;\n\n        setState(State.Preparing);\n\n        emit ChangeExternalAddress(_product, \"Product\");\n    }\n\n    function setTokenDistributor(address _tokenDistributor)\n        external\n        onlyOwner\n        checkStatus\n        validAddress(_tokenDistributor)\n    {\n        tokenDistributor = TokenDistributor(_tokenDistributor);\n        emit ChangeExternalAddress(_tokenDistributor, \"TokenDistributor\");\n    }\n\n    function setWhitelist(address _whitelist)\n        external\n        onlyOwner\n        validAddress(_whitelist)\n    {\n        whiteList = Whitelist(_whitelist);\n        emit ChangeExternalAddress(_whitelist, \"Whitelist\");\n    }\n\n    function setWallet(address _wallet)\n        external\n        onlyOwner\n        validAddress(_wallet)\n    {\n        wallet = _wallet;\n        emit ChangeExternalAddress(_wallet, \"Wallet\");\n    }\n\n    function pause() external onlyOwner {\n        require(getState() == State.Starting);\n\n        setState(State.Pausing);\n    }\n\n    function start() external onlyOwner {\n        require(getState() == State.Preparing || getState() == State.Pausing);\n\n        setState(State.Starting);\n    }\n\n    function finish() external onlyOwner {\n        setState(State.Finished);\n    }\n\n    function () external payable {\n        address buyer = msg.sender;\n        uint256 amount = msg.value;\n        address productAddress = address(product);\n\n        require(getState() == State.Starting);\n        require(whiteList.whitelist(buyer));\n        require(buyer != address(0));\n        require(weiRaised[productAddress] < product.maxcap());\n        require(buyers[productAddress][buyer] < product.exceed());\n        require(buyers[productAddress][buyer].add(amount) >= product.minimum());\n\n        uint256 purchase;\n        uint256 refund;\n        (purchase, refund) = getPurchaseDetail(buyers[productAddress][buyer], amount, productAddress);\n\n        if(purchase > 0) {\n            wallet.transfer(purchase);\n            tokenDistributor.addPurchased(buyer, productAddress, purchase.mul(product.rate()), purchase);\n            weiRaised[productAddress] = weiRaised[productAddress].add(purchase);\n            buyers[productAddress][buyer] = buyers[productAddress][buyer].add(purchase);\n        }\n\n        if(refund > 0) {\n            buyer.transfer(refund);\n        }\n\n        if(weiRaised[productAddress] >= product.maxcap()) {\n            setState(State.Finished);\n        }\n\n        emit Purchase(buyer, purchase, refund, purchase.mul(product.rate()));\n    }\n\n    function getPurchaseDetail(uint256 _raisedAmount, uint256 _amount, address _product)\n        private\n        view\n        returns (uint256, uint256)\n    {\n        uint256 d1 = product.maxcap().sub(weiRaised[_product]);\n        uint256 d2 = product.exceed().sub(_raisedAmount);\n        uint256 possibleAmount = (d1.min256(d2)).min256(_amount);\n\n        return (possibleAmount, _amount.sub(possibleAmount));\n    }\n\n    function getProductWeiRaised(address _product)\n        external\n        view\n        validAddress(_product)\n        returns (uint256)\n    {\n        return weiRaised[_product];\n    }\n\n    function refund(uint256 _id, address _product, address _buyer)\n        external\n        onlyOwner\n        payable\n        validAddress(_product)\n        validAddress(_buyer)\n    {\n        require(_id > 0);\n\n        bool isRefund;\n        uint256 refundAmount;\n        (isRefund, refundAmount) = tokenDistributor.refund(_id, _product, _buyer);\n\n        require(msg.value == refundAmount);\n        require(isRefund && refundAmount > 0);\n\n        _buyer.transfer(refundAmount);\n\n        if(address(product) == _product\n            && (getState() == State.Starting || getState() == State.Pausing))\n        {\n            weiRaised[_product] = weiRaised[_product].sub(refundAmount);\n            buyers[_product][_buyer] = buyers[_product][_buyer].sub(refundAmount);\n        }\n    }\n\n    function buyerAddressTransfer(uint256 _id, address _product, address _from, address _to)\n        external\n        onlyOwner\n        validAddress(_product)\n        validAddress(_from)\n        validAddress(_to)\n    {\n        require(_id > 0);\n        require(whiteList.whitelist(_from));\n        require(whiteList.whitelist(_to));\n        require(buyers[_product][_from] > 0);\n        require(buyers[_product][_to] == 0);\n\n        bool isChanged;\n        uint256 transferAmount;\n        (isChanged, transferAmount) = tokenDistributor.buyerAddressTransfer(_id, _from, _to);\n\n        require(isChanged && transferAmount > 0);\n\n        buyers[_product][_from] = buyers[_product][_from].sub(transferAmount);\n        buyers[_product][_to] = buyers[_product][_to].add(transferAmount);\n    }\n\n    event Purchase(address indexed _buyer, uint256 _purchased, uint256 _refund, uint256 _tokens);\n    event ChangeExternalAddress(address _addr, string _name);\n}\n",
  "sourcePath": "/Users/jhseo/Workspace/Git/Piction/smart-ico/contracts/sale/Sale.sol",
  "compiler": {
    "name": "solc",
    "version": "0.4.24+commit.e67f0147.Emscripten.clang"
  },
  "schemaVersion": "2.0.0",
  "updatedAt": "2018-06-28T02:22:42.344Z"
}