{
  "contractName": "TokenDistributor",
  "abi": [
    {
      "constant": false,
      "inputs": [
        {
          "name": "guest",
          "type": "address"
        }
      ],
      "name": "addOwner",
      "outputs": [],
      "payable": false,
      "stateMutability": "nonpayable",
      "type": "function"
    },
    {
      "constant": false,
      "inputs": [
        {
          "name": "newOwner",
          "type": "address"
        }
      ],
      "name": "transferOwnership",
      "outputs": [],
      "payable": false,
      "stateMutability": "nonpayable",
      "type": "function"
    },
    {
      "constant": true,
      "inputs": [],
      "name": "criterionTime",
      "outputs": [
        {
          "name": "",
          "type": "uint256"
        }
      ],
      "payable": false,
      "stateMutability": "view",
      "type": "function"
    },
    {
      "inputs": [
        {
          "name": "_token",
          "type": "address"
        }
      ],
      "payable": false,
      "stateMutability": "nonpayable",
      "type": "constructor"
    },
    {
      "anonymous": false,
      "inputs": [
        {
          "indexed": false,
          "name": "buyer",
          "type": "address"
        },
        {
          "indexed": false,
          "name": "product",
          "type": "address"
        },
        {
          "indexed": false,
          "name": "id",
          "type": "uint256"
        },
        {
          "indexed": false,
          "name": "amount",
          "type": "uint256"
        },
        {
          "indexed": false,
          "name": "etherAmount",
          "type": "uint256"
        },
        {
          "indexed": false,
          "name": "release",
          "type": "bool"
        },
        {
          "indexed": false,
          "name": "refund",
          "type": "bool"
        }
      ],
      "name": "Receipt",
      "type": "event"
    },
    {
      "anonymous": false,
      "inputs": [
        {
          "indexed": false,
          "name": "product",
          "type": "address"
        },
        {
          "indexed": false,
          "name": "request",
          "type": "uint256"
        },
        {
          "indexed": false,
          "name": "succeed",
          "type": "uint256"
        },
        {
          "indexed": false,
          "name": "remainder",
          "type": "uint256"
        }
      ],
      "name": "ReleaseByCount",
      "type": "event"
    },
    {
      "anonymous": false,
      "inputs": [
        {
          "indexed": false,
          "name": "_id",
          "type": "uint256"
        },
        {
          "indexed": false,
          "name": "_from",
          "type": "address"
        },
        {
          "indexed": false,
          "name": "_to",
          "type": "address"
        },
        {
          "indexed": false,
          "name": "_etherAmount",
          "type": "uint256"
        }
      ],
      "name": "BuyerAddressTransfer",
      "type": "event"
    },
    {
      "anonymous": false,
      "inputs": [
        {
          "indexed": false,
          "name": "to",
          "type": "address"
        },
        {
          "indexed": false,
          "name": "amount",
          "type": "uint256"
        }
      ],
      "name": "WithdrawToken",
      "type": "event"
    },
    {
      "anonymous": false,
      "inputs": [
        {
          "indexed": true,
          "name": "previousOwner",
          "type": "address"
        },
        {
          "indexed": true,
          "name": "newOwner",
          "type": "address"
        }
      ],
      "name": "OwnershipTransferred",
      "type": "event"
    },
    {
      "anonymous": false,
      "inputs": [
        {
          "indexed": true,
          "name": "host",
          "type": "address"
        },
        {
          "indexed": true,
          "name": "guest",
          "type": "address"
        }
      ],
      "name": "OwnershipExtended",
      "type": "event"
    },
    {
      "constant": false,
      "inputs": [
        {
          "name": "_buyer",
          "type": "address"
        },
        {
          "name": "_product",
          "type": "address"
        },
        {
          "name": "_amount",
          "type": "uint256"
        },
        {
          "name": "_etherAmount",
          "type": "uint256"
        }
      ],
      "name": "addPurchased",
      "outputs": [
        {
          "name": "",
          "type": "uint256"
        }
      ],
      "payable": false,
      "stateMutability": "nonpayable",
      "type": "function"
    },
    {
      "constant": true,
      "inputs": [],
      "name": "getTokenAddress",
      "outputs": [
        {
          "name": "",
          "type": "address"
        }
      ],
      "payable": false,
      "stateMutability": "view",
      "type": "function"
    },
    {
      "constant": true,
      "inputs": [
        {
          "name": "_index",
          "type": "uint256"
        }
      ],
      "name": "getAmount",
      "outputs": [
        {
          "name": "",
          "type": "uint256"
        }
      ],
      "payable": false,
      "stateMutability": "view",
      "type": "function"
    },
    {
      "constant": true,
      "inputs": [
        {
          "name": "_index",
          "type": "uint256"
        }
      ],
      "name": "getEtherAmount",
      "outputs": [
        {
          "name": "",
          "type": "uint256"
        }
      ],
      "payable": false,
      "stateMutability": "view",
      "type": "function"
    },
    {
      "constant": true,
      "inputs": [],
      "name": "getAllReceipt",
      "outputs": [
        {
          "name": "",
          "type": "address[]"
        },
        {
          "name": "",
          "type": "address[]"
        },
        {
          "name": "",
          "type": "uint256[]"
        },
        {
          "name": "",
          "type": "uint256[]"
        },
        {
          "name": "",
          "type": "uint256[]"
        },
        {
          "name": "",
          "type": "bool[]"
        },
        {
          "name": "",
          "type": "bool[]"
        }
      ],
      "payable": false,
      "stateMutability": "view",
      "type": "function"
    },
    {
      "constant": true,
      "inputs": [
        {
          "name": "_buyer",
          "type": "address"
        }
      ],
      "name": "getBuyerReceipt",
      "outputs": [
        {
          "name": "",
          "type": "address[]"
        },
        {
          "name": "",
          "type": "uint256[]"
        },
        {
          "name": "",
          "type": "uint256[]"
        },
        {
          "name": "",
          "type": "uint256[]"
        },
        {
          "name": "",
          "type": "bool[]"
        },
        {
          "name": "",
          "type": "bool[]"
        }
      ],
      "payable": false,
      "stateMutability": "view",
      "type": "function"
    },
    {
      "constant": false,
      "inputs": [
        {
          "name": "_criterionTime",
          "type": "uint256"
        }
      ],
      "name": "setCriterionTime",
      "outputs": [],
      "payable": false,
      "stateMutability": "nonpayable",
      "type": "function"
    },
    {
      "constant": false,
      "inputs": [
        {
          "name": "_product",
          "type": "address"
        },
        {
          "name": "_count",
          "type": "uint256"
        }
      ],
      "name": "releaseByCount",
      "outputs": [],
      "payable": false,
      "stateMutability": "nonpayable",
      "type": "function"
    },
    {
      "constant": false,
      "inputs": [
        {
          "name": "_index",
          "type": "uint256"
        }
      ],
      "name": "release",
      "outputs": [],
      "payable": false,
      "stateMutability": "nonpayable",
      "type": "function"
    },
    {
      "constant": false,
      "inputs": [
        {
          "name": "_index",
          "type": "uint256"
        },
        {
          "name": "_product",
          "type": "address"
        },
        {
          "name": "_buyer",
          "type": "address"
        }
      ],
      "name": "refund",
      "outputs": [
        {
          "name": "",
          "type": "bool"
        },
        {
          "name": "",
          "type": "uint256"
        }
      ],
      "payable": false,
      "stateMutability": "nonpayable",
      "type": "function"
    },
    {
      "constant": false,
      "inputs": [
        {
          "name": "_index",
          "type": "uint256"
        },
        {
          "name": "_from",
          "type": "address"
        },
        {
          "name": "_to",
          "type": "address"
        }
      ],
      "name": "buyerAddressTransfer",
      "outputs": [
        {
          "name": "",
          "type": "bool"
        },
        {
          "name": "",
          "type": "uint256"
        }
      ],
      "payable": false,
      "stateMutability": "nonpayable",
      "type": "function"
    },
    {
      "constant": false,
      "inputs": [],
      "name": "withdrawToken",
      "outputs": [],
      "payable": false,
      "stateMutability": "nonpayable",
      "type": "function"
    }
  ],
  "bytecode": "0x608060405234801561001057600080fd5b506040516020806137058339810180604052810190808051906020019092919050505060016000803373ffffffffffffffffffffffffffffffffffffffff1673ffffffffffffffffffffffffffffffffffffffff16815260200190815260200160002060006101000a81548160ff02191690831515021790555080600160006101000a81548173ffffffffffffffffffffffffffffffffffffffff021916908373ffffffffffffffffffffffffffffffffffffffff16021790555060006003819055506000600481905550600260e060405190810160405280600073ffffffffffffffffffffffffffffffffffffffff168152602001600073ffffffffffffffffffffffffffffffffffffffff168152602001600081526020016000815260200160008152602001600115158152602001600115158152509080600181540180825580915050906001820390600052602060002090600602016000909192909190915060008201518160000160006101000a81548173ffffffffffffffffffffffffffffffffffffffff021916908373ffffffffffffffffffffffffffffffffffffffff16021790555060208201518160010160006101000a81548173ffffffffffffffffffffffffffffffffffffffff021916908373ffffffffffffffffffffffffffffffffffffffff16021790555060408201518160020155606082015181600301556080820151816004015560a08201518160050160006101000a81548160ff02191690831515021790555060c08201518160050160016101000a81548160ff02191690831515021790555050505050613493806102726000396000f3006080604052600436106100db576000357c0100000000000000000000000000000000000000000000000000000000900463ffffffff16806310fe9ae8146100e0578063270e4cf01461013757806331f1fd2b146101c357806337bdc99b146101f05780633dcd351f1461021d578063400adee3146104395780635f22c42f146104865780637065cb481461068657806396e83a40146106c95780639980ec8614610755578063adf4fa0914610796578063c81c590d14610821578063ca628c7814610862578063f2fde38b14610879578063f7d8c5ca146108bc575b600080fd5b3480156100ec57600080fd5b506100f56108e7565b604051808273ffffffffffffffffffffffffffffffffffffffff1673ffffffffffffffffffffffffffffffffffffffff16815260200191505060405180910390f35b34801561014357600080fd5b506101a260048036038101908080359060200190929190803573ffffffffffffffffffffffffffffffffffffffff169060200190929190803573ffffffffffffffffffffffffffffffffffffffff169060200190929190505050610911565b60405180831515151581526020018281526020019250505060405180910390f35b3480156101cf57600080fd5b506101ee60048036038101908080359060200190929190505050610b58565b005b3480156101fc57600080fd5b5061021b60048036038101908080359060200190929190505050610bc8565b005b34801561022957600080fd5b50610232611196565b604051808060200180602001806020018060200180602001806020018060200188810388528f818151815260200191508051906020019060200280838360005b8381101561028d578082015181840152602081019050610272565b5050505090500188810387528e818151815260200191508051906020019060200280838360005b838110156102cf5780820151818401526020810190506102b4565b5050505090500188810386528d818151815260200191508051906020019060200280838360005b838110156103115780820151818401526020810190506102f6565b5050505090500188810385528c818151815260200191508051906020019060200280838360005b83811015610353578082015181840152602081019050610338565b5050505090500188810384528b818151815260200191508051906020019060200280838360005b8381101561039557808201518184015260208101905061037a565b5050505090500188810383528a818151815260200191508051906020019060200280838360005b838110156103d75780820151818401526020810190506103bc565b50505050905001888103825289818151815260200191508051906020019060200280838360005b838110156104195780820151818401526020810190506103fe565b505050509050019e50505050505050505050505050505060405180910390f35b34801561044557600080fd5b50610484600480360381019080803573ffffffffffffffffffffffffffffffffffffffff169060200190929190803590602001909291905050506116d8565b005b34801561049257600080fd5b506104c7600480360381019080803573ffffffffffffffffffffffffffffffffffffffff169060200190929190505050611ded565b6040518080602001806020018060200180602001806020018060200187810387528d818151815260200191508051906020019060200280838360005b8381101561051e578082015181840152602081019050610503565b5050505090500187810386528c818151815260200191508051906020019060200280838360005b83811015610560578082015181840152602081019050610545565b5050505090500187810385528b818151815260200191508051906020019060200280838360005b838110156105a2578082015181840152602081019050610587565b5050505090500187810384528a818151815260200191508051906020019060200280838360005b838110156105e45780820151818401526020810190506105c9565b50505050905001878103835289818151815260200191508051906020019060200280838360005b8381101561062657808201518184015260208101905061060b565b50505050905001878103825288818151815260200191508051906020019060200280838360005b8381101561066857808201518184015260208101905061064d565b505050509050019c5050505050505050505050505060405180910390f35b34801561069257600080fd5b506106c7600480360381019080803573ffffffffffffffffffffffffffffffffffffffff169060200190929190505050612329565b005b3480156106d557600080fd5b5061073460048036038101908080359060200190929190803573ffffffffffffffffffffffffffffffffffffffff169060200190929190803573ffffffffffffffffffffffffffffffffffffffff169060200190929190505050612470565b60405180831515151581526020018281526020019250505060405180910390f35b34801561076157600080fd5b506107806004803603810190808035906020019092919050505061283f565b6040518082815260200191505060405180910390f35b3480156107a257600080fd5b5061080b600480360381019080803573ffffffffffffffffffffffffffffffffffffffff169060200190929190803573ffffffffffffffffffffffffffffffffffffffff16906020019092919080359060200190929190803590602001909291905050506128ec565b6040518082815260200191505060405180910390f35b34801561082d57600080fd5b5061084c60048036038101908080359060200190929190505050612cae565b6040518082815260200191505060405180910390f35b34801561086e57600080fd5b50610877612d5b565b005b34801561088557600080fd5b506108ba600480360381019080803573ffffffffffffffffffffffffffffffffffffffff16906020019092919050505061305a565b005b3480156108c857600080fd5b506108d16131ef565b6040518082815260200191505060405180910390f35b6000600160009054906101000a900473ffffffffffffffffffffffffffffffffffffffff16905090565b6000806000803373ffffffffffffffffffffffffffffffffffffffff1673ffffffffffffffffffffffffffffffffffffffff16815260200190815260200160002060009054906101000a900460ff16151561096b57600080fd5b610974856131f5565b151561097f57600080fd5b8373ffffffffffffffffffffffffffffffffffffffff166002868154811015156109a557fe5b906000526020600020906006020160000160009054906101000a900473ffffffffffffffffffffffffffffffffffffffff1673ffffffffffffffffffffffffffffffffffffffff161415610b455782600286815481101515610a0357fe5b906000526020600020906006020160000160006101000a81548173ffffffffffffffffffffffffffffffffffffffff021916908373ffffffffffffffffffffffffffffffffffffffff1602179055507fe4612ac395b35db3bd8d0dd90a616aa83fd9e13b1fbb77d563565c9ac1d7f4cd858585600289815481101515610a8557fe5b906000526020600020906006020160040154604051808581526020018473ffffffffffffffffffffffffffffffffffffffff1673ffffffffffffffffffffffffffffffffffffffff1681526020018373ffffffffffffffffffffffffffffffffffffffff1673ffffffffffffffffffffffffffffffffffffffff16815260200182815260200194505050505060405180910390a16001600286815481101515610b2a57fe5b90600052602060002090600602016004015491509150610b50565b600080809050915091505b935093915050565b6000803373ffffffffffffffffffffffffffffffffffffffff1673ffffffffffffffffffffffffffffffffffffffff16815260200190815260200160002060009054906101000a900460ff161515610baf57600080fd5b600081111515610bbe57600080fd5b8060048190555050565b6000806000803373ffffffffffffffffffffffffffffffffffffffff1673ffffffffffffffffffffffffffffffffffffffff16815260200190815260200160002060009054906101000a900460ff161515610c2257600080fd5b60008314151515610c3257600080fd5b600060045414151515610c4457600080fd5b610c4d836131f5565b1515610c5857600080fd5b600283815481101515610c6757fe5b906000526020600020906006020160010160009054906101000a900473ffffffffffffffffffffffffffffffffffffffff169150610ca7620151806132ee565b9050610d6e610d5d828473ffffffffffffffffffffffffffffffffffffffff166306490f476040518163ffffffff167c0100000000000000000000000000000000000000000000000000000000028152600401602060405180830381600087803b158015610d1457600080fd5b505af1158015610d28573d6000803e3d6000fd5b505050506040513d6020811015610d3e57600080fd5b810190808051906020019092919050505061330c90919063ffffffff16565b60045461334490919063ffffffff16565b610d77426132ee565b10151515610d8457600080fd5b600283815481101515610d9357fe5b906000526020600020906006020160030154600160009054906101000a900473ffffffffffffffffffffffffffffffffffffffff1673ffffffffffffffffffffffffffffffffffffffff166370a08231306040518263ffffffff167c0100000000000000000000000000000000000000000000000000000000028152600401808273ffffffffffffffffffffffffffffffffffffffff1673ffffffffffffffffffffffffffffffffffffffff168152602001915050602060405180830381600087803b158015610e6257600080fd5b505af1158015610e76573d6000803e3d6000fd5b505050506040513d6020811015610e8c57600080fd5b810190808051906020019092919050505010151515610eaa57600080fd5b6001600284815481101515610ebb57fe5b906000526020600020906006020160050160006101000a81548160ff021916908315150217905550610f90600284815481101515610ef557fe5b906000526020600020906006020160000160009054906101000a900473ffffffffffffffffffffffffffffffffffffffff16600285815481101515610f3657fe5b906000526020600020906006020160030154600160009054906101000a900473ffffffffffffffffffffffffffffffffffffffff1673ffffffffffffffffffffffffffffffffffffffff166133609092919063ffffffff16565b7fa66ebdb9fd4eb94301667fc07d89a2dd05470317a7cc1efa8f97b469984f3bc8600284815481101515610fc057fe5b906000526020600020906006020160000160009054906101000a900473ffffffffffffffffffffffffffffffffffffffff1660028581548110151561100157fe5b906000526020600020906006020160010160009054906101000a900473ffffffffffffffffffffffffffffffffffffffff1660028681548110151561104257fe5b90600052602060002090600602016002015460028781548110151561106357fe5b90600052602060002090600602016003015460028881548110151561108457fe5b9060005260206000209060060201600401546002898154811015156110a557fe5b906000526020600020906006020160050160009054906101000a900460ff1660028a8154811015156110d357fe5b906000526020600020906006020160050160019054906101000a900460ff16604051808873ffffffffffffffffffffffffffffffffffffffff1673ffffffffffffffffffffffffffffffffffffffff1681526020018773ffffffffffffffffffffffffffffffffffffffff1673ffffffffffffffffffffffffffffffffffffffff168152602001868152602001858152602001848152602001831515151581526020018215151515815260200197505050505050505060405180910390a1505050565b6060806060806060806060806060806060806060806000806000803373ffffffffffffffffffffffffffffffffffffffff1673ffffffffffffffffffffffffffffffffffffffff16815260200190815260200160002060009054906101000a900460ff16151561120557600080fd5b61121e600160028054905061344e90919063ffffffff16565b60405190808252806020026020018201604052801561124c5781602001602082028038833980820191505090505b509850611268600160028054905061344e90919063ffffffff16565b6040519080825280602002602001820160405280156112965781602001602082028038833980820191505090505b5097506112b2600160028054905061344e90919063ffffffff16565b6040519080825280602002602001820160405280156112e05781602001602082028038833980820191505090505b5096506112fc600160028054905061344e90919063ffffffff16565b60405190808252806020026020018201604052801561132a5781602001602082028038833980820191505090505b509550611346600160028054905061344e90919063ffffffff16565b6040519080825280602002602001820160405280156113745781602001602082028038833980820191505090505b509450611390600160028054905061344e90919063ffffffff16565b6040519080825280602002602001820160405280156113be5781602001602082028038833980820191505090505b5093506113da600160028054905061344e90919063ffffffff16565b6040519080825280602002602001820160405280156114085781602001602082028038833980820191505090505b50925060009150600190505b6002805490508110156116b15760028181548110151561143057fe5b906000526020600020906006020160010160009054906101000a900473ffffffffffffffffffffffffffffffffffffffff16898381518110151561147057fe5b9060200190602002019073ffffffffffffffffffffffffffffffffffffffff16908173ffffffffffffffffffffffffffffffffffffffff16815250506002818154811015156114bb57fe5b906000526020600020906006020160000160009054906101000a900473ffffffffffffffffffffffffffffffffffffffff1688838151811015156114fb57fe5b9060200190602002019073ffffffffffffffffffffffffffffffffffffffff16908173ffffffffffffffffffffffffffffffffffffffff168152505060028181548110151561154657fe5b906000526020600020906006020160020154878381518110151561156657fe5b906020019060200201818152505060028181548110151561158357fe5b90600052602060002090600602016003015486838151811015156115a357fe5b90602001906020020181815250506002818154811015156115c057fe5b90600052602060002090600602016004015485838151811015156115e057fe5b90602001906020020181815250506002818154811015156115fd57fe5b906000526020600020906006020160050160009054906101000a900460ff16848381518110151561162a57fe5b906020019060200201901515908115158152505060028181548110151561164d57fe5b906000526020600020906006020160050160019054906101000a900460ff16838381518110151561167a57fe5b90602001906020020190151590811515815250506116a260018361334490919063ffffffff16565b91508080600101915050611414565b888888888888889f509f509f509f509f509f509f5050505050505050505090919293949596565b60008060008060008060003373ffffffffffffffffffffffffffffffffffffffff1673ffffffffffffffffffffffffffffffffffffffff16815260200190815260200160002060009054906101000a900460ff16151561173757600080fd5b60006004541415151561174957600080fd5b6000945060009350600192505b600280549050831015611d695761176c836131f5565b80156117e357508673ffffffffffffffffffffffffffffffffffffffff1660028481548110151561179957fe5b906000526020600020906006020160010160009054906101000a900473ffffffffffffffffffffffffffffffffffffffff1673ffffffffffffffffffffffffffffffffffffffff16145b15611d5c5785851015611d44576002838154811015156117ff57fe5b906000526020600020906006020160010160009054906101000a900473ffffffffffffffffffffffffffffffffffffffff16915061183f620151806132ee565b90506119066118f5828473ffffffffffffffffffffffffffffffffffffffff166306490f476040518163ffffffff167c0100000000000000000000000000000000000000000000000000000000028152600401602060405180830381600087803b1580156118ac57600080fd5b505af11580156118c0573d6000803e3d6000fd5b505050506040513d60208110156118d657600080fd5b810190808051906020019092919050505061330c90919063ffffffff16565b60045461334490919063ffffffff16565b61190f426132ee565b1015151561191c57600080fd5b60028381548110151561192b57fe5b906000526020600020906006020160030154600160009054906101000a900473ffffffffffffffffffffffffffffffffffffffff1673ffffffffffffffffffffffffffffffffffffffff166370a08231306040518263ffffffff167c0100000000000000000000000000000000000000000000000000000000028152600401808273ffffffffffffffffffffffffffffffffffffffff1673ffffffffffffffffffffffffffffffffffffffff168152602001915050602060405180830381600087803b1580156119fa57600080fd5b505af1158015611a0e573d6000803e3d6000fd5b505050506040513d6020811015611a2457600080fd5b810190808051906020019092919050505010151515611a4257600080fd5b6001600284815481101515611a5357fe5b906000526020600020906006020160050160006101000a81548160ff021916908315150217905550611b28600284815481101515611a8d57fe5b906000526020600020906006020160000160009054906101000a900473ffffffffffffffffffffffffffffffffffffffff16600285815481101515611ace57fe5b906000526020600020906006020160030154600160009054906101000a900473ffffffffffffffffffffffffffffffffffffffff1673ffffffffffffffffffffffffffffffffffffffff166133609092919063ffffffff16565b611b3c60018661334490919063ffffffff16565b94507fa66ebdb9fd4eb94301667fc07d89a2dd05470317a7cc1efa8f97b469984f3bc8600284815481101515611b6e57fe5b906000526020600020906006020160000160009054906101000a900473ffffffffffffffffffffffffffffffffffffffff16600285815481101515611baf57fe5b906000526020600020906006020160010160009054906101000a900473ffffffffffffffffffffffffffffffffffffffff16600286815481101515611bf057fe5b906000526020600020906006020160020154600287815481101515611c1157fe5b906000526020600020906006020160030154600288815481101515611c3257fe5b906000526020600020906006020160040154600289815481101515611c5357fe5b906000526020600020906006020160050160009054906101000a900460ff1660028a815481101515611c8157fe5b906000526020600020906006020160050160019054906101000a900460ff16604051808873ffffffffffffffffffffffffffffffffffffffff1673ffffffffffffffffffffffffffffffffffffffff1681526020018773ffffffffffffffffffffffffffffffffffffffff1673ffffffffffffffffffffffffffffffffffffffff168152602001868152602001858152602001848152602001831515151581526020018215151515815260200197505050505050505060405180910390a1611d5b565b611d5860018561334490919063ffffffff16565b93505b5b8280600101935050611756565b7f8a848c6cc2b5bdc650d4dcb20aae2769584133ba35462c9e88bcbfc56a3bd81187878787604051808573ffffffffffffffffffffffffffffffffffffffff1673ffffffffffffffffffffffffffffffffffffffff16815260200184815260200183815260200182815260200194505050505060405180910390a150505050505050565b6060806060806060806000806060806060806060808e600073ffffffffffffffffffffffffffffffffffffffff168173ffffffffffffffffffffffffffffffffffffffff1614151515611e3f57600080fd5b3073ffffffffffffffffffffffffffffffffffffffff168173ffffffffffffffffffffffffffffffffffffffff1614151515611e7a57600080fd5b60009850600197505b600280549050881015611f28578f73ffffffffffffffffffffffffffffffffffffffff16600289815481101515611eb657fe5b906000526020600020906006020160000160009054906101000a900473ffffffffffffffffffffffffffffffffffffffff1673ffffffffffffffffffffffffffffffffffffffff161415611f1b57611f1860018a61334490919063ffffffff16565b98505b8780600101985050611e83565b88604051908082528060200260200182016040528015611f575781602001602082028038833980820191505090505b50965088604051908082528060200260200182016040528015611f895781602001602082028038833980820191505090505b50955088604051908082528060200260200182016040528015611fbb5781602001602082028038833980820191505090505b50945088604051908082528060200260200182016040528015611fed5781602001602082028038833980820191505090505b5093508860405190808252806020026020018201604052801561201f5781602001602082028038833980820191505090505b509250886040519080825280602002602001820160405280156120515781602001602082028038833980820191505090505b5091506000891415612074578686868686869e509e509e509e509e509e50612317565b60009850600197505b600280549050881015612304578f73ffffffffffffffffffffffffffffffffffffffff166002898154811015156120b057fe5b906000526020600020906006020160000160009054906101000a900473ffffffffffffffffffffffffffffffffffffffff1673ffffffffffffffffffffffffffffffffffffffff1614156122f75760028881548110151561210d57fe5b906000526020600020906006020160010160009054906101000a900473ffffffffffffffffffffffffffffffffffffffff16878a81518110151561214d57fe5b9060200190602002019073ffffffffffffffffffffffffffffffffffffffff16908173ffffffffffffffffffffffffffffffffffffffff168152505060028881548110151561219857fe5b906000526020600020906006020160020154868a8151811015156121b857fe5b90602001906020020181815250506002888154811015156121d557fe5b906000526020600020906006020160030154858a8151811015156121f557fe5b906020019060200201818152505060028881548110151561221257fe5b906000526020600020906006020160040154848a81518110151561223257fe5b906020019060200201818152505060028881548110151561224f57fe5b906000526020600020906006020160050160009054906101000a900460ff16838a81518110151561227c57fe5b906020019060200201901515908115158152505060028881548110151561229f57fe5b906000526020600020906006020160050160019054906101000a900460ff16828a8151811015156122cc57fe5b90602001906020020190151590811515815250506122f460018a61334490919063ffffffff16565b98505b878060010198505061207d565b8686868686869e509e509e509e509e509e505b50505050505050505091939550919395565b6000803373ffffffffffffffffffffffffffffffffffffffff1673ffffffffffffffffffffffffffffffffffffffff16815260200190815260200160002060009054906101000a900460ff16151561238057600080fd5b600073ffffffffffffffffffffffffffffffffffffffff168173ffffffffffffffffffffffffffffffffffffffff16141515156123bc57600080fd5b60016000808373ffffffffffffffffffffffffffffffffffffffff1673ffffffffffffffffffffffffffffffffffffffff16815260200190815260200160002060006101000a81548160ff0219169083151502179055508073ffffffffffffffffffffffffffffffffffffffff163373ffffffffffffffffffffffffffffffffffffffff167f1d95aed2b82ae4cbdcccc214bb64bc277a20e8490d69a59d7f426c67fe46c61d60405160405180910390a350565b6000806000803373ffffffffffffffffffffffffffffffffffffffff1673ffffffffffffffffffffffffffffffffffffffff16815260200190815260200160002060009054906101000a900460ff1615156124ca57600080fd5b6124d3856131f5565b801561254a57508373ffffffffffffffffffffffffffffffffffffffff1660028681548110151561250057fe5b906000526020600020906006020160010160009054906101000a900473ffffffffffffffffffffffffffffffffffffffff1673ffffffffffffffffffffffffffffffffffffffff16145b80156125c157508273ffffffffffffffffffffffffffffffffffffffff1660028681548110151561257757fe5b906000526020600020906006020160000160009054906101000a900473ffffffffffffffffffffffffffffffffffffffff1673ffffffffffffffffffffffffffffffffffffffff16145b1561282c5760016002868154811015156125d757fe5b906000526020600020906006020160050160016101000a81548160ff0219169083151502179055507fa66ebdb9fd4eb94301667fc07d89a2dd05470317a7cc1efa8f97b469984f3bc860028681548110151561262f57fe5b906000526020600020906006020160000160009054906101000a900473ffffffffffffffffffffffffffffffffffffffff1660028781548110151561267057fe5b906000526020600020906006020160010160009054906101000a900473ffffffffffffffffffffffffffffffffffffffff166002888154811015156126b157fe5b9060005260206000209060060201600201546002898154811015156126d257fe5b90600052602060002090600602016003015460028a8154811015156126f357fe5b90600052602060002090600602016004015460028b81548110151561271457fe5b906000526020600020906006020160050160009054906101000a900460ff1660028c81548110151561274257fe5b906000526020600020906006020160050160019054906101000a900460ff16604051808873ffffffffffffffffffffffffffffffffffffffff1673ffffffffffffffffffffffffffffffffffffffff1681526020018773ffffffffffffffffffffffffffffffffffffffff1673ffffffffffffffffffffffffffffffffffffffff168152602001868152602001858152602001848152602001831515151581526020018215151515815260200197505050505050505060405180910390a1600160028681548110151561281157fe5b90600052602060002090600602016004015491509150612837565b600080809050915091505b935093915050565b60008082141561285257600090506128e7565b60028281548110151561286157fe5b906000526020600020906006020160050160009054906101000a900460ff16806128b5575060028281548110151561289557fe5b906000526020600020906006020160050160019054906101000a900460ff165b156128c357600090506128e7565b6002828154811015156128d257fe5b90600052602060002090600602016003015490505b919050565b60008060003373ffffffffffffffffffffffffffffffffffffffff1673ffffffffffffffffffffffffffffffffffffffff16815260200190815260200160002060009054906101000a900460ff16151561294557600080fd5b84600073ffffffffffffffffffffffffffffffffffffffff168173ffffffffffffffffffffffffffffffffffffffff161415151561298257600080fd5b3073ffffffffffffffffffffffffffffffffffffffff168173ffffffffffffffffffffffffffffffffffffffff16141515156129bd57600080fd5b84600073ffffffffffffffffffffffffffffffffffffffff168173ffffffffffffffffffffffffffffffffffffffff16141515156129fa57600080fd5b3073ffffffffffffffffffffffffffffffffffffffff168173ffffffffffffffffffffffffffffffffffffffff1614151515612a3557600080fd5b612a4b600160035461334490919063ffffffff16565b600381905550600260e0604051908101604052808973ffffffffffffffffffffffffffffffffffffffff1681526020018873ffffffffffffffffffffffffffffffffffffffff1681526020016003548152602001878152602001868152602001600015158152602001600015158152509080600181540180825580915050906001820390600052602060002090600602016000909192909190915060008201518160000160006101000a81548173ffffffffffffffffffffffffffffffffffffffff021916908373ffffffffffffffffffffffffffffffffffffffff16021790555060208201518160010160006101000a81548173ffffffffffffffffffffffffffffffffffffffff021916908373ffffffffffffffffffffffffffffffffffffffff16021790555060408201518160020155606082015181600301556080820151816004015560a08201518160050160006101000a81548160ff02191690831515021790555060c08201518160050160016101000a81548160ff0219169083151502179055505050507fa66ebdb9fd4eb94301667fc07d89a2dd05470317a7cc1efa8f97b469984f3bc887876003548888600080604051808873ffffffffffffffffffffffffffffffffffffffff1673ffffffffffffffffffffffffffffffffffffffff1681526020018773ffffffffffffffffffffffffffffffffffffffff1673ffffffffffffffffffffffffffffffffffffffff168152602001868152602001858152602001848152602001831515151581526020018215151515815260200197505050505050505060405180910390a160035492505050949350505050565b600080821415612cc15760009050612d56565b600282815481101515612cd057fe5b906000526020600020906006020160050160009054906101000a900460ff1680612d245750600282815481101515612d0457fe5b906000526020600020906006020160050160019054906101000a900460ff165b15612d325760009050612d56565b600282815481101515612d4157fe5b90600052602060002090600602016004015490505b919050565b6000803373ffffffffffffffffffffffffffffffffffffffff1673ffffffffffffffffffffffffffffffffffffffff16815260200190815260200160002060009054906101000a900460ff161515612db257600080fd5b612ef633600160009054906101000a900473ffffffffffffffffffffffffffffffffffffffff1673ffffffffffffffffffffffffffffffffffffffff166370a08231306040518263ffffffff167c0100000000000000000000000000000000000000000000000000000000028152600401808273ffffffffffffffffffffffffffffffffffffffff1673ffffffffffffffffffffffffffffffffffffffff168152602001915050602060405180830381600087803b158015612e7357600080fd5b505af1158015612e87573d6000803e3d6000fd5b505050506040513d6020811015612e9d57600080fd5b8101908080519060200190929190505050600160009054906101000a900473ffffffffffffffffffffffffffffffffffffffff1673ffffffffffffffffffffffffffffffffffffffff166133609092919063ffffffff16565b7f992ee874049a42cae0757a765cd7f641b6028cc35c3478bde8330bf417c3a7a933600160009054906101000a900473ffffffffffffffffffffffffffffffffffffffff1673ffffffffffffffffffffffffffffffffffffffff166370a08231306040518263ffffffff167c0100000000000000000000000000000000000000000000000000000000028152600401808273ffffffffffffffffffffffffffffffffffffffff1673ffffffffffffffffffffffffffffffffffffffff168152602001915050602060405180830381600087803b158015612fd557600080fd5b505af1158015612fe9573d6000803e3d6000fd5b505050506040513d6020811015612fff57600080fd5b8101908080519060200190929190505050604051808373ffffffffffffffffffffffffffffffffffffffff1673ffffffffffffffffffffffffffffffffffffffff1681526020018281526020019250505060405180910390a1565b6000803373ffffffffffffffffffffffffffffffffffffffff1673ffffffffffffffffffffffffffffffffffffffff16815260200190815260200160002060009054906101000a900460ff1615156130b157600080fd5b600073ffffffffffffffffffffffffffffffffffffffff168173ffffffffffffffffffffffffffffffffffffffff16141515156130ed57600080fd5b60016000808373ffffffffffffffffffffffffffffffffffffffff1673ffffffffffffffffffffffffffffffffffffffff16815260200190815260200160002060006101000a81548160ff0219169083151502179055506000803373ffffffffffffffffffffffffffffffffffffffff1673ffffffffffffffffffffffffffffffffffffffff16815260200190815260200160002060006101000a81549060ff02191690558073ffffffffffffffffffffffffffffffffffffffff163373ffffffffffffffffffffffffffffffffffffffff167f8be0079c531659141344cd1fd0a4f28419497f9722a3daafe3b4186f6b6457e060405160405180910390a350565b60045481565b600060028281548110151561320657fe5b906000526020600020906006020160050160009054906101000a900460ff1615801561325d575060028281548110151561323c57fe5b906000526020600020906006020160050160019054906101000a900460ff16155b80156132d65750600073ffffffffffffffffffffffffffffffffffffffff1660028381548110151561328b57fe5b906000526020600020906006020160010160009054906101000a900473ffffffffffffffffffffffffffffffffffffffff1673ffffffffffffffffffffffffffffffffffffffff1614155b156132e457600190506132e9565b600090505b919050565b60006133056103e88361330c90919063ffffffff16565b9050919050565b60008083141561331f576000905061333e565b818302905081838281151561333057fe5b0414151561333a57fe5b8090505b92915050565b6000818301905082811015151561335757fe5b80905092915050565b8273ffffffffffffffffffffffffffffffffffffffff1663a9059cbb83836040518363ffffffff167c0100000000000000000000000000000000000000000000000000000000028152600401808373ffffffffffffffffffffffffffffffffffffffff1673ffffffffffffffffffffffffffffffffffffffff16815260200182815260200192505050602060405180830381600087803b15801561340357600080fd5b505af1158015613417573d6000803e3d6000fd5b505050506040513d602081101561342d57600080fd5b8101908080519060200190929190505050151561344957600080fd5b505050565b600082821115151561345c57fe5b8183039050929150505600a165627a7a723058209a8891509589ce32fe5e71c40addc72f60429be2f7288093b35f5094fd3e194d0029",
  "source": "pragma solidity ^0.4.23;\n\nimport \"openzeppelin-solidity/contracts/token/ERC20/ERC20.sol\";\nimport \"openzeppelin-solidity/contracts/token/ERC20/SafeERC20.sol\";\nimport \"openzeppelin-solidity/contracts/math/SafeMath.sol\";\nimport \"contracts/utils/BlockTimeMs.sol\";\nimport \"./Product.sol\";\n\ncontract TokenDistributor is ExtendsOwnable {\n\n    using SafeMath for uint256;\n    using BlockTimeMs for uint256;\n    using SafeERC20 for ERC20;\n\n    struct Purchased {\n        address buyer;\n        address product;\n        uint256 id;\n        uint256 amount;\n        uint256 etherAmount;\n        bool release;\n        bool refund;\n    }\n\n    ERC20 token;\n    Purchased[] private purchasedList;\n    uint256 private index;\n    uint256 public criterionTime;\n\n    modifier validAddress(address _account) {\n        require(_account != address(0));\n        require(_account != address(this));\n        _;\n    }\n\n    event Receipt(\n        address buyer,\n        address product,\n        uint256 id,\n        uint256 amount,\n        uint256 etherAmount,\n        bool release,\n        bool refund\n    );\n\n    event ReleaseByCount(\n        address product,\n        uint256 request,\n        uint256 succeed,\n        uint256 remainder\n    );\n\n    event BuyerAddressTransfer(uint256 _id, address _from, address _to, uint256 _etherAmount);\n\n    event WithdrawToken(address to, uint256 amount);\n\n    constructor(address _token) public {\n        token = ERC20(_token);\n        index = 0;\n        criterionTime = 0;\n\n        //for error check\n        purchasedList.push(Purchased(0, 0, 0, 0, 0, true, true));\n    }\n\n    function addPurchased(address _buyer, address _product, uint256 _amount, uint256 _etherAmount)\n        external\n        onlyOwner\n        validAddress(_buyer)\n        validAddress(_product)\n        returns(uint256)\n    {\n        index = index.add(1);\n        purchasedList.push(Purchased(_buyer, _product, index, _amount, _etherAmount, false, false));\n\n        emit Receipt(_buyer, _product, index, _amount, _etherAmount, false, false);\n        return index;\n    }\n\n    function getTokenAddress() external view returns(address) {\n        return address(token);\n    }\n\n    function getAmount(uint256 _index) external view returns(uint256) {\n        if (_index == 0) {\n            return 0;\n        }\n\n        if (purchasedList[_index].release || purchasedList[_index].refund) {\n            return 0;\n        } else {\n            return purchasedList[_index].amount;\n        }\n    }\n\n    function getEtherAmount(uint256 _index) external view returns(uint256) {\n        if (_index == 0) {\n            return 0;\n        }\n\n        if (purchasedList[_index].release || purchasedList[_index].refund) {\n            return 0;\n        } else {\n            return purchasedList[_index].etherAmount;\n        }\n    }\n\n    function getAllReceipt()\n        external\n        view\n        onlyOwner\n        returns(address[], address[], uint256[], uint256[], uint256[], bool[], bool[])\n    {\n        address[] memory product = new address[](purchasedList.length.sub(1));\n        address[] memory buyer = new address[](purchasedList.length.sub(1));\n        uint256[] memory id = new uint256[](purchasedList.length.sub(1));\n        uint256[] memory amount = new uint256[](purchasedList.length.sub(1));\n        uint256[] memory etherAmount = new uint256[](purchasedList.length.sub(1));\n        bool[] memory release = new bool[](purchasedList.length.sub(1));\n        bool[] memory refund = new bool[](purchasedList.length.sub(1));\n\n        uint256 receiptIndex = 0;\n        for(uint i=1; i < purchasedList.length; i++) {\n            product[receiptIndex] = purchasedList[i].product;\n            buyer[receiptIndex] = purchasedList[i].buyer;\n            id[receiptIndex] = purchasedList[i].id;\n            amount[receiptIndex] = purchasedList[i].amount;\n            etherAmount[receiptIndex] = purchasedList[i].etherAmount;\n            release[receiptIndex] = purchasedList[i].release;\n            refund[receiptIndex] = purchasedList[i].refund;\n\n            receiptIndex = receiptIndex.add(1);\n        }\n        return (product, buyer, id, amount, etherAmount, release, refund);\n\n    }\n\n    function getBuyerReceipt(address _buyer)\n        external\n        view\n        validAddress(_buyer)\n        returns(address[], uint256[], uint256[], uint256[], bool[], bool[])\n    {\n        uint256 count = 0;\n        for(uint i=1; i < purchasedList.length; i++) {\n            if (purchasedList[i].buyer == _buyer) {\n                count = count.add(1);\n            }\n        }\n\n        address[] memory product = new address[](count);\n        uint256[] memory id = new uint256[](count);\n        uint256[] memory amount = new uint256[](count);\n        uint256[] memory etherAmount = new uint256[](count);\n        bool[] memory release = new bool[](count);\n        bool[] memory refund = new bool[](count);\n\n        if (count == 0) {\n            return (product, id, amount, etherAmount, release, refund);\n        }\n\n        count = 0;\n        for(i = 1; i < purchasedList.length; i++) {\n            if (purchasedList[i].buyer == _buyer) {\n                product[count] = purchasedList[i].product;\n                id[count] = purchasedList[i].id;\n                amount[count] = purchasedList[i].amount;\n                etherAmount[count] = purchasedList[i].etherAmount;\n                release[count] = purchasedList[i].release;\n                refund[count] = purchasedList[i].refund;\n\n                count = count.add(1);\n            }\n        }\n        return (product, id, amount, etherAmount, release, refund);\n    }\n\n    function setCriterionTime(uint256 _criterionTime) external onlyOwner {\n        require(_criterionTime > 0);\n\n        criterionTime = _criterionTime;\n    }\n\n    function releaseByCount(address _product, uint256 _count)\n        external\n        onlyOwner\n    {\n        require(criterionTime != 0);\n\n        uint256 succeed = 0;\n        uint256 remainder = 0;\n\n        for(uint i=1; i < purchasedList.length; i++) {\n            if (isLive(i) && (purchasedList[i].product == _product)) {\n                if (succeed < _count) {\n                    Product product = Product(purchasedList[i].product);\n                    uint256 oneDay = uint256(1 days).getMs();\n                    require(block.timestamp.getMs() >= criterionTime.add(product.lockup().mul(oneDay)));\n                    require(token.balanceOf(address(this)) >= purchasedList[i].amount);\n\n                    purchasedList[i].release = true;\n                    token.safeTransfer(purchasedList[i].buyer, purchasedList[i].amount);\n\n                    succeed = succeed.add(1);\n\n                    emit Receipt(\n                        purchasedList[i].buyer,\n                        purchasedList[i].product,\n                        purchasedList[i].id,\n                        purchasedList[i].amount,\n                        purchasedList[i].etherAmount,\n                        purchasedList[i].release,\n                        purchasedList[i].refund);\n                } else {\n                    remainder = remainder.add(1);\n                }\n            }\n        }\n\n        emit ReleaseByCount(_product, _count, succeed, remainder);\n    }\n\n    function release(uint256 _index) external onlyOwner {\n        require(_index != 0);\n        require(criterionTime != 0);\n        require(isLive(_index));\n\n        Product product = Product(purchasedList[_index].product);\n        uint256 oneDay = uint256(1 days).getMs();\n        require(block.timestamp.getMs() >= criterionTime.add(product.lockup().mul(oneDay)));\n        require(token.balanceOf(address(this)) >= purchasedList[_index].amount);\n\n        purchasedList[_index].release = true;\n        token.safeTransfer(purchasedList[_index].buyer, purchasedList[_index].amount);\n\n        emit Receipt(\n            purchasedList[_index].buyer,\n            purchasedList[_index].product,\n            purchasedList[_index].id,\n            purchasedList[_index].amount,\n            purchasedList[_index].etherAmount,\n            purchasedList[_index].release,\n            purchasedList[_index].refund);\n    }\n\n    function refund(uint _index, address _product, address _buyer)\n        external\n        onlyOwner\n        returns (bool, uint256)\n    {\n        if (isLive(_index)\n            && purchasedList[_index].product == _product\n            && purchasedList[_index].buyer == _buyer)\n        {\n\n            purchasedList[_index].refund = true;\n\n            emit Receipt(\n                purchasedList[_index].buyer,\n                purchasedList[_index].product,\n                purchasedList[_index].id,\n                purchasedList[_index].amount,\n                purchasedList[_index].etherAmount,\n                purchasedList[_index].release,\n                purchasedList[_index].refund);\n\n            return (true, purchasedList[_index].etherAmount);\n        } else {\n            return (false, 0);\n        }\n    }\n\n    function buyerAddressTransfer(uint256 _index, address _from, address _to)\n        external\n        onlyOwner\n        returns (bool, uint256)\n    {\n        require(isLive(_index));\n\n        if (purchasedList[_index].buyer == _from) {\n            purchasedList[_index].buyer = _to;\n            emit BuyerAddressTransfer(_index, _from, _to, purchasedList[_index].etherAmount);\n            return (true, purchasedList[_index].etherAmount);\n        } else {\n            return (false, 0);\n        }\n    }\n\n    function withdrawToken() external onlyOwner {\n        token.safeTransfer(msg.sender, token.balanceOf(address(this)));\n        emit WithdrawToken(msg.sender, token.balanceOf(address(this)));\n    }\n\n    function isLive(uint256 _index) private view returns(bool){\n        if (!purchasedList[_index].release\n            && !purchasedList[_index].refund\n            && purchasedList[_index].product != address(0)) {\n            return true;\n        } else {\n            return false;\n        }\n    }\n}\n",
  "sourcePath": "/Users/jhseo/Workspace/Git/Piction/smart-ico/contracts/sale/TokenDistributor.sol",
  "compiler": {
    "name": "solc",
    "version": "0.4.24+commit.e67f0147.Emscripten.clang"
  },
  "schemaVersion": "2.0.0",
  "updatedAt": "2018-06-28T02:22:42.366Z"
}