{
  "contractName": "Whitelist",
  "abi": [
    {
      "constant": true,
      "inputs": [
        {
          "name": "_operator",
          "type": "address"
        },
        {
          "name": "_role",
          "type": "string"
        }
      ],
      "name": "checkRole",
      "outputs": [],
      "payable": false,
      "stateMutability": "view",
      "type": "function"
    },
    {
      "constant": true,
      "inputs": [],
      "name": "ROLE_WHITELISTED",
      "outputs": [
        {
          "name": "",
          "type": "string"
        }
      ],
      "payable": false,
      "stateMutability": "view",
      "type": "function"
    },
    {
      "constant": true,
      "inputs": [
        {
          "name": "_operator",
          "type": "address"
        },
        {
          "name": "_role",
          "type": "string"
        }
      ],
      "name": "hasRole",
      "outputs": [
        {
          "name": "",
          "type": "bool"
        }
      ],
      "payable": false,
      "stateMutability": "view",
      "type": "function"
    },
    {
      "constant": false,
      "inputs": [],
      "name": "renounceOwnership",
      "outputs": [],
      "payable": false,
      "stateMutability": "nonpayable",
      "type": "function"
    },
    {
      "constant": true,
      "inputs": [],
      "name": "owner",
      "outputs": [
        {
          "name": "",
          "type": "address"
        }
      ],
      "payable": false,
      "stateMutability": "view",
      "type": "function"
    },
    {
      "constant": false,
      "inputs": [
        {
          "name": "_newOwner",
          "type": "address"
        }
      ],
      "name": "transferOwnership",
      "outputs": [],
      "payable": false,
      "stateMutability": "nonpayable",
      "type": "function"
    },
    {
      "anonymous": false,
      "inputs": [
        {
          "indexed": true,
          "name": "operator",
          "type": "address"
        },
        {
          "indexed": false,
          "name": "role",
          "type": "string"
        }
      ],
      "name": "RoleAdded",
      "type": "event"
    },
    {
      "anonymous": false,
      "inputs": [
        {
          "indexed": true,
          "name": "operator",
          "type": "address"
        },
        {
          "indexed": false,
          "name": "role",
          "type": "string"
        }
      ],
      "name": "RoleRemoved",
      "type": "event"
    },
    {
      "anonymous": false,
      "inputs": [
        {
          "indexed": true,
          "name": "previousOwner",
          "type": "address"
        }
      ],
      "name": "OwnershipRenounced",
      "type": "event"
    },
    {
      "anonymous": false,
      "inputs": [
        {
          "indexed": true,
          "name": "previousOwner",
          "type": "address"
        },
        {
          "indexed": true,
          "name": "newOwner",
          "type": "address"
        }
      ],
      "name": "OwnershipTransferred",
      "type": "event"
    },
    {
      "constant": false,
      "inputs": [
        {
          "name": "_operator",
          "type": "address"
        }
      ],
      "name": "addAddressToWhitelist",
      "outputs": [],
      "payable": false,
      "stateMutability": "nonpayable",
      "type": "function"
    },
    {
      "constant": true,
      "inputs": [
        {
          "name": "_operator",
          "type": "address"
        }
      ],
      "name": "whitelist",
      "outputs": [
        {
          "name": "",
          "type": "bool"
        }
      ],
      "payable": false,
      "stateMutability": "view",
      "type": "function"
    },
    {
      "constant": false,
      "inputs": [
        {
          "name": "_operators",
          "type": "address[]"
        }
      ],
      "name": "addAddressesToWhitelist",
      "outputs": [],
      "payable": false,
      "stateMutability": "nonpayable",
      "type": "function"
    },
    {
      "constant": false,
      "inputs": [
        {
          "name": "_operator",
          "type": "address"
        }
      ],
      "name": "removeAddressFromWhitelist",
      "outputs": [],
      "payable": false,
      "stateMutability": "nonpayable",
      "type": "function"
    },
    {
      "constant": false,
      "inputs": [
        {
          "name": "_operators",
          "type": "address[]"
        }
      ],
      "name": "removeAddressesFromWhitelist",
      "outputs": [],
      "payable": false,
      "stateMutability": "nonpayable",
      "type": "function"
    }
  ],
  "bytecode": "0x6080604052336000806101000a81548173ffffffffffffffffffffffffffffffffffffffff021916908373ffffffffffffffffffffffffffffffffffffffff160217905550610f11806100536000396000f3006080604052600436106100af576000357c0100000000000000000000000000000000000000000000000000000000900463ffffffff1680630988ca8c146100b457806318b919e91461013d578063217fe6c6146101cd57806324953eaa1461026e578063286dd3f5146102d4578063715018a6146103175780637b9417c81461032e5780638da5cb5b146103715780639b19251a146103c8578063e2ec6ec314610423578063f2fde38b14610489575b600080fd5b3480156100c057600080fd5b5061013b600480360381019080803573ffffffffffffffffffffffffffffffffffffffff169060200190929190803590602001908201803590602001908080601f01602080910402602001604051908101604052809392919081815260200183838082843782019150505050505091929192905050506104cc565b005b34801561014957600080fd5b5061015261054d565b6040518080602001828103825283818151815260200191508051906020019080838360005b83811015610192578082015181840152602081019050610177565b50505050905090810190601f1680156101bf5780820380516001836020036101000a031916815260200191505b509250505060405180910390f35b3480156101d957600080fd5b50610254600480360381019080803573ffffffffffffffffffffffffffffffffffffffff169060200190929190803590602001908201803590602001908080601f0160208091040260200160405190810160405280939291908181526020018383808284378201915050505050509192919290505050610586565b604051808215151515815260200191505060405180910390f35b34801561027a57600080fd5b506102d26004803603810190808035906020019082018035906020019080806020026020016040519081016040528093929190818152602001838360200280828437820191505050505050919291929050505061060d565b005b3480156102e057600080fd5b50610315600480360381019080803573ffffffffffffffffffffffffffffffffffffffff1690602001909291905050506106a9565b005b34801561032357600080fd5b5061032c610746565b005b34801561033a57600080fd5b5061036f600480360381019080803573ffffffffffffffffffffffffffffffffffffffff169060200190929190505050610848565b005b34801561037d57600080fd5b506103866108e5565b604051808273ffffffffffffffffffffffffffffffffffffffff1673ffffffffffffffffffffffffffffffffffffffff16815260200191505060405180910390f35b3480156103d457600080fd5b50610409600480360381019080803573ffffffffffffffffffffffffffffffffffffffff16906020019092919050505061090a565b604051808215151515815260200191505060405180910390f35b34801561042f57600080fd5b5061048760048036038101908080359060200190820180359060200190808060200260200160405190810160405280939291908181526020018383602002808284378201915050505050509192919290505050610952565b005b34801561049557600080fd5b506104ca600480360381019080803573ffffffffffffffffffffffffffffffffffffffff1690602001909291905050506109ee565b005b610549826001836040518082805190602001908083835b60208310151561050857805182526020820191506020810190506020830392506104e3565b6001836020036101000a0380198251168184511680821785525050505050509050019150509081526020016040518091039020610a5590919063ffffffff16565b5050565b6040805190810160405280600981526020017f77686974656c697374000000000000000000000000000000000000000000000081525081565b6000610605836001846040518082805190602001908083835b6020831015156105c4578051825260208201915060208101905060208303925061059f565b6001836020036101000a0380198251168184511680821785525050505050509050019150509081526020016040518091039020610a6e90919063ffffffff16565b905092915050565b60008060009054906101000a900473ffffffffffffffffffffffffffffffffffffffff1673ffffffffffffffffffffffffffffffffffffffff163373ffffffffffffffffffffffffffffffffffffffff1614151561066a57600080fd5b600090505b81518110156106a557610698828281518110151561068957fe5b906020019060200201516106a9565b808060010191505061066f565b5050565b6000809054906101000a900473ffffffffffffffffffffffffffffffffffffffff1673ffffffffffffffffffffffffffffffffffffffff163373ffffffffffffffffffffffffffffffffffffffff1614151561070457600080fd5b610743816040805190810160405280600981526020017f77686974656c6973740000000000000000000000000000000000000000000000815250610ac7565b50565b6000809054906101000a900473ffffffffffffffffffffffffffffffffffffffff1673ffffffffffffffffffffffffffffffffffffffff163373ffffffffffffffffffffffffffffffffffffffff161415156107a157600080fd5b6000809054906101000a900473ffffffffffffffffffffffffffffffffffffffff1673ffffffffffffffffffffffffffffffffffffffff167ff8df31144d9c2f0f6b59d69b8b98abd5459d07f2742c4df920b25aae33c6482060405160405180910390a260008060006101000a81548173ffffffffffffffffffffffffffffffffffffffff021916908373ffffffffffffffffffffffffffffffffffffffff160217905550565b6000809054906101000a900473ffffffffffffffffffffffffffffffffffffffff1673ffffffffffffffffffffffffffffffffffffffff163373ffffffffffffffffffffffffffffffffffffffff161415156108a357600080fd5b6108e2816040805190810160405280600981526020017f77686974656c6973740000000000000000000000000000000000000000000000815250610bfb565b50565b6000809054906101000a900473ffffffffffffffffffffffffffffffffffffffff1681565b600061094b826040805190810160405280600981526020017f77686974656c6973740000000000000000000000000000000000000000000000815250610586565b9050919050565b60008060009054906101000a900473ffffffffffffffffffffffffffffffffffffffff1673ffffffffffffffffffffffffffffffffffffffff163373ffffffffffffffffffffffffffffffffffffffff161415156109af57600080fd5b600090505b81518110156109ea576109dd82828151811015156109ce57fe5b90602001906020020151610848565b80806001019150506109b4565b5050565b6000809054906101000a900473ffffffffffffffffffffffffffffffffffffffff1673ffffffffffffffffffffffffffffffffffffffff163373ffffffffffffffffffffffffffffffffffffffff16141515610a4957600080fd5b610a5281610d2f565b50565b610a5f8282610a6e565b1515610a6a57600080fd5b5050565b60008260000160008373ffffffffffffffffffffffffffffffffffffffff1673ffffffffffffffffffffffffffffffffffffffff16815260200190815260200160002060009054906101000a900460ff16905092915050565b610b44826001836040518082805190602001908083835b602083101515610b035780518252602082019150602081019050602083039250610ade565b6001836020036101000a0380198251168184511680821785525050505050509050019150509081526020016040518091039020610e2990919063ffffffff16565b8173ffffffffffffffffffffffffffffffffffffffff167fd211483f91fc6eff862467f8de606587a30c8fc9981056f051b897a418df803a826040518080602001828103825283818151815260200191508051906020019080838360005b83811015610bbd578082015181840152602081019050610ba2565b50505050905090810190601f168015610bea5780820380516001836020036101000a031916815260200191505b509250505060405180910390a25050565b610c78826001836040518082805190602001908083835b602083101515610c375780518252602082019150602081019050602083039250610c12565b6001836020036101000a0380198251168184511680821785525050505050509050019150509081526020016040518091039020610e8790919063ffffffff16565b8173ffffffffffffffffffffffffffffffffffffffff167fbfec83d64eaa953f2708271a023ab9ee82057f8f3578d548c1a4ba0b5b700489826040518080602001828103825283818151815260200191508051906020019080838360005b83811015610cf1578082015181840152602081019050610cd6565b50505050905090810190601f168015610d1e5780820380516001836020036101000a031916815260200191505b509250505060405180910390a25050565b600073ffffffffffffffffffffffffffffffffffffffff168173ffffffffffffffffffffffffffffffffffffffff1614151515610d6b57600080fd5b8073ffffffffffffffffffffffffffffffffffffffff166000809054906101000a900473ffffffffffffffffffffffffffffffffffffffff1673ffffffffffffffffffffffffffffffffffffffff167f8be0079c531659141344cd1fd0a4f28419497f9722a3daafe3b4186f6b6457e060405160405180910390a3806000806101000a81548173ffffffffffffffffffffffffffffffffffffffff021916908373ffffffffffffffffffffffffffffffffffffffff16021790555050565b60008260000160008373ffffffffffffffffffffffffffffffffffffffff1673ffffffffffffffffffffffffffffffffffffffff16815260200190815260200160002060006101000a81548160ff0219169083151502179055505050565b60018260000160008373ffffffffffffffffffffffffffffffffffffffff1673ffffffffffffffffffffffffffffffffffffffff16815260200190815260200160002060006101000a81548160ff02191690831515021790555050505600a165627a7a723058204f056c1ce7bcf7df8b3360e4b44888cc968438740eb78893cad02da5270bbfc70029",
  "source": "pragma solidity ^0.4.24;\n\n\nimport \"../ownership/Ownable.sol\";\nimport \"../ownership/rbac/RBAC.sol\";\n\n\n/**\n * @title Whitelist\n * @dev The Whitelist contract has a whitelist of addresses, and provides basic authorization control functions.\n * This simplifies the implementation of \"user permissions\".\n */\ncontract Whitelist is Ownable, RBAC {\n  string public constant ROLE_WHITELISTED = \"whitelist\";\n\n  /**\n   * @dev Throws if operator is not whitelisted.\n   * @param _operator address\n   */\n  modifier onlyIfWhitelisted(address _operator) {\n    checkRole(_operator, ROLE_WHITELISTED);\n    _;\n  }\n\n  /**\n   * @dev add an address to the whitelist\n   * @param _operator address\n   * @return true if the address was added to the whitelist, false if the address was already in the whitelist\n   */\n  function addAddressToWhitelist(address _operator)\n    onlyOwner\n    public\n  {\n    addRole(_operator, ROLE_WHITELISTED);\n  }\n\n  /**\n   * @dev getter to determine if address is in whitelist\n   */\n  function whitelist(address _operator)\n    public\n    view\n    returns (bool)\n  {\n    return hasRole(_operator, ROLE_WHITELISTED);\n  }\n\n  /**\n   * @dev add addresses to the whitelist\n   * @param _operators addresses\n   * @return true if at least one address was added to the whitelist,\n   * false if all addresses were already in the whitelist\n   */\n  function addAddressesToWhitelist(address[] _operators)\n    onlyOwner\n    public\n  {\n    for (uint256 i = 0; i < _operators.length; i++) {\n      addAddressToWhitelist(_operators[i]);\n    }\n  }\n\n  /**\n   * @dev remove an address from the whitelist\n   * @param _operator address\n   * @return true if the address was removed from the whitelist,\n   * false if the address wasn't in the whitelist in the first place\n   */\n  function removeAddressFromWhitelist(address _operator)\n    onlyOwner\n    public\n  {\n    removeRole(_operator, ROLE_WHITELISTED);\n  }\n\n  /**\n   * @dev remove addresses from the whitelist\n   * @param _operators addresses\n   * @return true if at least one address was removed from the whitelist,\n   * false if all addresses weren't in the whitelist in the first place\n   */\n  function removeAddressesFromWhitelist(address[] _operators)\n    onlyOwner\n    public\n  {\n    for (uint256 i = 0; i < _operators.length; i++) {\n      removeAddressFromWhitelist(_operators[i]);\n    }\n  }\n\n}\n",
  "sourcePath": "openzeppelin-solidity/contracts/access/Whitelist.sol",
  "compiler": {
    "name": "solc",
    "version": "0.4.24+commit.e67f0147.Emscripten.clang"
  },
  "schemaVersion": "2.0.0",
  "updatedAt": "2018-06-28T02:22:42.350Z"
}